{"abi":[{"type":"constructor","inputs":[],"stateMutability":"nonpayable"},{"type":"function","name":"batchSetReputationScores","inputs":[{"name":"users","type":"address[]","internalType":"address[]"},{"name":"scores","type":"uint256[]","internalType":"uint256[]"}],"outputs":[],"stateMutability":"nonpayable"},{"type":"function","name":"defaultScore","inputs":[],"outputs":[{"name":"","type":"uint256","internalType":"uint256"}],"stateMutability":"view"},{"type":"function","name":"getReputationScore","inputs":[{"name":"user","type":"address","internalType":"address"}],"outputs":[{"name":"score","type":"uint256","internalType":"uint256"}],"stateMutability":"view"},{"type":"function","name":"isActive","inputs":[],"outputs":[{"name":"","type":"bool","internalType":"bool"}],"stateMutability":"view"},{"type":"function","name":"owner","inputs":[],"outputs":[{"name":"","type":"address","internalType":"address"}],"stateMutability":"view"},{"type":"function","name":"renounceOwnership","inputs":[],"outputs":[],"stateMutability":"nonpayable"},{"type":"function","name":"resetReputationScore","inputs":[{"name":"user","type":"address","internalType":"address"}],"outputs":[],"stateMutability":"nonpayable"},{"type":"function","name":"setActive","inputs":[{"name":"active","type":"bool","internalType":"bool"}],"outputs":[],"stateMutability":"nonpayable"},{"type":"function","name":"setDefaultScore","inputs":[{"name":"_defaultScore","type":"uint256","internalType":"uint256"}],"outputs":[],"stateMutability":"nonpayable"},{"type":"function","name":"setHighReputation","inputs":[{"name":"user","type":"address","internalType":"address"}],"outputs":[],"stateMutability":"nonpayable"},{"type":"function","name":"setLowReputation","inputs":[{"name":"user","type":"address","internalType":"address"}],"outputs":[],"stateMutability":"nonpayable"},{"type":"function","name":"setNeutralReputation","inputs":[{"name":"user","type":"address","internalType":"address"}],"outputs":[],"stateMutability":"nonpayable"},{"type":"function","name":"setReputationScore","inputs":[{"name":"user","type":"address","internalType":"address"},{"name":"score","type":"uint256","internalType":"uint256"}],"outputs":[],"stateMutability":"nonpayable"},{"type":"function","name":"transferOwnership","inputs":[{"name":"newOwner","type":"address","internalType":"address"}],"outputs":[],"stateMutability":"nonpayable"},{"type":"event","name":"DefaultScoreUpdated","inputs":[{"name":"newDefault","type":"uint256","indexed":false,"internalType":"uint256"}],"anonymous":false},{"type":"event","name":"OracleStatusChanged","inputs":[{"name":"isActive","type":"bool","indexed":false,"internalType":"bool"}],"anonymous":false},{"type":"event","name":"OwnershipTransferred","inputs":[{"name":"previousOwner","type":"address","indexed":true,"internalType":"address"},{"name":"newOwner","type":"address","indexed":true,"internalType":"address"}],"anonymous":false},{"type":"event","name":"ReputationScoreSet","inputs":[{"name":"user","type":"address","indexed":true,"internalType":"address"},{"name":"score","type":"uint256","indexed":false,"internalType":"uint256"}],"anonymous":false},{"type":"error","name":"OwnableInvalidOwner","inputs":[{"name":"owner","type":"address","internalType":"address"}]},{"type":"error","name":"OwnableUnauthorizedAccount","inputs":[{"name":"account","type":"address","internalType":"address"}]}],"bytecode":{"object":"0x60806040526002805460ff19166001179055670de0b6b3a76400006003553480156027575f5ffd5b503380604c57604051631e4fbdf760e01b81525f600482015260240160405180910390fd5b6053816058565b5060a7565b5f80546001600160a01b038381166001600160a01b0319831681178455604051919092169283917f8be0079c531659141344cd1fd0a4f28419497f9722a3daafe3b4186f6b6457e09190a35050565b61089a806100b45f395ff3fe608060405234801561000f575f5ffd5b50600436106100e5575f3560e01c8063715018a6116100885780638312d3fe116100635780638312d3fe146101aa5780638da5cb5b146101bd578063acec338a146101d7578063f2fde38b146101ea575f5ffd5b8063715018a61461017c578063731d58131461018457806375a67d5c14610197575f5ffd5b806342fb9e89116100c357806342fb9e89146101305780634dae95271461014357806369966374146101565780636dde2f8414610169575f5ffd5b80630e9b5d25146100e957806318870e351461010557806322f3e2d41461011a575b5f5ffd5b6100f260035481565b6040519081526020015b60405180910390f35b6101186101133660046106fe565b6101fd565b005b60025460ff1660405190151581526020016100fc565b61011861013e366004610726565b610297565b610118610151366004610746565b6102e8565b610118610164366004610726565b61032c565b6101186101773660046107a5565b610376565b610118610518565b610118610192366004610726565b61052b565b6100f26101a5366004610726565b610569565b6101186101b8366004610726565b610598565b5f546040516001600160a01b0390911681526020016100fc565b6101186101e5366004610811565b6105e2565b6101186101f8366004610726565b61062b565b610205610668565b6001600160a01b0382166102525760405162461bcd60e51b815260206004820152600f60248201526e496e76616c6964206164647265737360881b60448201526064015b60405180910390fd5b6001600160a01b0382165f8181526001602052604090819020839055515f5160206108455f395f51905f529061028b9084815260200190565b60405180910390a25050565b61029f610668565b6001600160a01b0381165f818152600160209081526040918290206706f05b59d3b200009081905591519182525f5160206108455f395f51905f5291015b60405180910390a250565b6102f0610668565b60038190556040518181527fa7a8e3796bd70f27702e319321c63982ddb3f79e5140cabe8d9d705e478536ee906020015b60405180910390a150565b610334610668565b6001600160a01b0381165f818152600160209081526040918290206729a2241af62c00009081905591519182525f5160206108455f395f51905f5291016102dd565b61037e610668565b8281146103c55760405162461bcd60e51b8152602060048201526015602482015274082e4e4c2f240d8cadccee8d040dad2e6dac2e8c6d605b1b6044820152606401610249565b5f5b83811015610511575f8585838181106103e2576103e2610830565b90506020020160208101906103f79190610726565b6001600160a01b03160361043f5760405162461bcd60e51b815260206004820152600f60248201526e496e76616c6964206164647265737360881b6044820152606401610249565b82828281811061045157610451610830565b9050602002013560015f87878581811061046d5761046d610830565b90506020020160208101906104829190610726565b6001600160a01b0316815260208101919091526040015f20558484828181106104ad576104ad610830565b90506020020160208101906104c29190610726565b6001600160a01b03165f5160206108455f395f51905f528484848181106104eb576104eb610830565b9050602002013560405161050191815260200190565b60405180910390a26001016103c7565b5050505050565b610520610668565b6105295f610694565b565b610533610668565b6001600160a01b0381165f818152600160209081526040808320839055519182525f5160206108455f395f51905f5291016102dd565b6001600160a01b0381165f90815260016020526040812054808203610592575050600354919050565b92915050565b6105a0610668565b6001600160a01b0381165f81815260016020908152604091829020670de0b6b3a76400009081905591519182525f5160206108455f395f51905f5291016102dd565b6105ea610668565b6002805460ff19168215159081179091556040519081527f25de6ecc0a07bc4466fd80484cf3004b609d934030530ddde3ae04b8da1da24990602001610321565b610633610668565b6001600160a01b03811661065c57604051631e4fbdf760e01b81525f6004820152602401610249565b61066581610694565b50565b5f546001600160a01b031633146105295760405163118cdaa760e01b8152336004820152602401610249565b5f80546001600160a01b038381166001600160a01b0319831681178455604051919092169283917f8be0079c531659141344cd1fd0a4f28419497f9722a3daafe3b4186f6b6457e09190a35050565b80356001600160a01b03811681146106f9575f5ffd5b919050565b5f5f6040838503121561070f575f5ffd5b610718836106e3565b946020939093013593505050565b5f60208284031215610736575f5ffd5b61073f826106e3565b9392505050565b5f60208284031215610756575f5ffd5b5035919050565b5f5f83601f84011261076d575f5ffd5b50813567ffffffffffffffff811115610784575f5ffd5b6020830191508360208260051b850101111561079e575f5ffd5b9250929050565b5f5f5f5f604085870312156107b8575f5ffd5b843567ffffffffffffffff8111156107ce575f5ffd5b6107da8782880161075d565b909550935050602085013567ffffffffffffffff8111156107f9575f5ffd5b6108058782880161075d565b95989497509550505050565b5f60208284031215610821575f5ffd5b8135801515811461073f575f5ffd5b634e487b7160e01b5f52603260045260245ffdfe1cec792292a9a7de2a2c33222da65a2c721091cd972137e1b95b954c0be6b65ea2646970667358221220af8c537bc6f35554bee0375d851eb89d076df62f0ccdfa6bf787397419b645d264736f6c63430008230033","linkReferences":{}},"methodIdentifiers":{"batchSetReputationScores(address[],uint256[])":"6dde2f84","defaultScore()":"0e9b5d25","getReputationScore(address)":"75a67d5c","isActive()":"22f3e2d4","owner()":"8da5cb5b","renounceOwnership()":"715018a6","resetReputationScore(address)":"731d5813","setActive(bool)":"acec338a","setDefaultScore(uint256)":"4dae9527","setHighReputation(address)":"69966374","setLowReputation(address)":"42fb9e89","setNeutralReputation(address)":"8312d3fe","setReputationScore(address,uint256)":"18870e35","transferOwnership(address)":"f2fde38b"},"id":1}