{"abi":[{"type":"constructor","inputs":[{"name":"_reputationOracle","type":"address","internalType":"address"},{"name":"initialAdmin","type":"address","internalType":"address"},{"name":"_governanceController","type":"address","internalType":"address"}],"stateMutability":"nonpayable"},{"type":"function","name":"ADMIN_ROLE","inputs":[],"outputs":[{"name":"","type":"bytes32","internalType":"bytes32"}],"stateMutability":"view"},{"type":"function","name":"BASE_MULTIPLIER","inputs":[],"outputs":[{"name":"","type":"uint256","internalType":"uint256"}],"stateMutability":"view"},{"type":"function","name":"DEFAULT_ADMIN_ROLE","inputs":[],"outputs":[{"name":"","type":"bytes32","internalType":"bytes32"}],"stateMutability":"view"},{"type":"function","name":"GOVERNANCE_ADMIN_ROLE","inputs":[],"outputs":[{"name":"","type":"bytes32","internalType":"bytes32"}],"stateMutability":"view"},{"type":"function","name":"GOVERNANCE_PARAM_DEFAULT_REP","inputs":[],"outputs":[{"name":"","type":"bytes32","internalType":"bytes32"}],"stateMutability":"view"},{"type":"function","name":"GOVERNANCE_PARAM_MAX_REP","inputs":[],"outputs":[{"name":"","type":"bytes32","internalType":"bytes32"}],"stateMutability":"view"},{"type":"function","name":"GOVERNANCE_PARAM_MIN_REP","inputs":[],"outputs":[{"name":"","type":"bytes32","internalType":"bytes32"}],"stateMutability":"view"},{"type":"function","name":"GOVERNANCE_PARAM_WEIGHTED_ENABLED","inputs":[],"outputs":[{"name":"","type":"bytes32","internalType":"bytes32"}],"stateMutability":"view"},{"type":"function","name":"GOVERNANCE_ROLE","inputs":[],"outputs":[{"name":"","type":"bytes32","internalType":"bytes32"}],"stateMutability":"view"},{"type":"function","name":"batchCalculateWeightedStake","inputs":[{"name":"users","type":"address[]","internalType":"address[]"},{"name":"stakeAmounts","type":"uint256[]","internalType":"uint256[]"}],"outputs":[{"name":"results","type":"tuple[]","internalType":"struct WeightedStaking.WeightedStakeResult[]","components":[{"name":"rawStake","type":"uint256","internalType":"uint256"},{"name":"reputationScore","type":"uint256","internalType":"uint256"},{"name":"effectiveStake","type":"uint256","internalType":"uint256"},{"name":"weight","type":"uint256","internalType":"uint256"}]}],"stateMutability":"view"},{"type":"function","name":"calculateAndRecordWeightedStake","inputs":[{"name":"user","type":"address","internalType":"address"},{"name":"stakeAmount","type":"uint256","internalType":"uint256"}],"outputs":[{"name":"effectiveStake","type":"uint256","internalType":"uint256"}],"stateMutability":"nonpayable"},{"type":"function","name":"calculateWeightedStake","inputs":[{"name":"user","type":"address","internalType":"address"},{"name":"stakeAmount","type":"uint256","internalType":"uint256"}],"outputs":[{"name":"result","type":"tuple","internalType":"struct WeightedStaking.WeightedStakeResult","components":[{"name":"rawStake","type":"uint256","internalType":"uint256"},{"name":"reputationScore","type":"uint256","internalType":"uint256"},{"name":"effectiveStake","type":"uint256","internalType":"uint256"},{"name":"weight","type":"uint256","internalType":"uint256"}]}],"stateMutability":"view"},{"type":"function","name":"defaultReputationScore","inputs":[],"outputs":[{"name":"","type":"uint256","internalType":"uint256"}],"stateMutability":"view"},{"type":"function","name":"emergencyAdmin","inputs":[],"outputs":[{"name":"","type":"address","internalType":"address"}],"stateMutability":"view"},{"type":"function","name":"emergencyPause","inputs":[],"outputs":[],"stateMutability":"nonpayable"},{"type":"function","name":"emergencyUnpause","inputs":[],"outputs":[],"stateMutability":"nonpayable"},{"type":"function","name":"getConfiguration","inputs":[],"outputs":[{"name":"oracle","type":"address","internalType":"address"},{"name":"minScore","type":"uint256","internalType":"uint256"},{"name":"maxScore","type":"uint256","internalType":"uint256"},{"name":"defaultScore","type":"uint256","internalType":"uint256"},{"name":"enabled","type":"bool","internalType":"bool"}],"stateMutability":"view"},{"type":"function","name":"getGovernanceVersion","inputs":[],"outputs":[{"name":"","type":"uint256","internalType":"uint256"}],"stateMutability":"view"},{"type":"function","name":"getRoleAdmin","inputs":[{"name":"role","type":"bytes32","internalType":"bytes32"}],"outputs":[{"name":"","type":"bytes32","internalType":"bytes32"}],"stateMutability":"view"},{"type":"function","name":"governanceController","inputs":[],"outputs":[{"name":"","type":"address","internalType":"address"}],"stateMutability":"view"},{"type":"function","name":"governanceEnabled","inputs":[],"outputs":[{"name":"","type":"bool","internalType":"bool"}],"stateMutability":"view"},{"type":"function","name":"grantRole","inputs":[{"name":"role","type":"bytes32","internalType":"bytes32"},{"name":"account","type":"address","internalType":"address"}],"outputs":[],"stateMutability":"nonpayable"},{"type":"function","name":"hasGovernanceRights","inputs":[{"name":"account","type":"address","internalType":"address"}],"outputs":[{"name":"","type":"bool","internalType":"bool"}],"stateMutability":"view"},{"type":"function","name":"hasRole","inputs":[{"name":"role","type":"bytes32","internalType":"bytes32"},{"name":"account","type":"address","internalType":"address"}],"outputs":[{"name":"","type":"bool","internalType":"bool"}],"stateMutability":"view"},{"type":"function","name":"maxReputationScore","inputs":[],"outputs":[{"name":"","type":"uint256","internalType":"uint256"}],"stateMutability":"view"},{"type":"function","name":"minReputationScore","inputs":[],"outputs":[{"name":"","type":"uint256","internalType":"uint256"}],"stateMutability":"view"},{"type":"function","name":"paused","inputs":[],"outputs":[{"name":"","type":"bool","internalType":"bool"}],"stateMutability":"view"},{"type":"function","name":"previewWeight","inputs":[{"name":"user","type":"address","internalType":"address"}],"outputs":[{"name":"weight","type":"uint256","internalType":"uint256"}],"stateMutability":"view"},{"type":"function","name":"renounceRole","inputs":[{"name":"role","type":"bytes32","internalType":"bytes32"},{"name":"callerConfirmation","type":"address","internalType":"address"}],"outputs":[],"stateMutability":"nonpayable"},{"type":"function","name":"reputationOracle","inputs":[],"outputs":[{"name":"","type":"address","internalType":"contract IReputationOracle"}],"stateMutability":"view"},{"type":"function","name":"requestGovernanceAddressUpdate","inputs":[{"name":"paramType","type":"uint8","internalType":"enum GovernanceHooks.ParameterType"},{"name":"newAddress","type":"address","internalType":"address"}],"outputs":[{"name":"proposalId","type":"bytes32","internalType":"bytes32"}],"stateMutability":"nonpayable"},{"type":"function","name":"requestGovernanceParameterUpdate","inputs":[{"name":"paramType","type":"uint8","internalType":"enum GovernanceHooks.ParameterType"},{"name":"newValue","type":"uint256","internalType":"uint256"}],"outputs":[{"name":"proposalId","type":"bytes32","internalType":"bytes32"}],"stateMutability":"nonpayable"},{"type":"function","name":"revokeRole","inputs":[{"name":"role","type":"bytes32","internalType":"bytes32"},{"name":"account","type":"address","internalType":"address"}],"outputs":[],"stateMutability":"nonpayable"},{"type":"function","name":"setDefaultReputationScore","inputs":[{"name":"_defaultScore","type":"uint256","internalType":"uint256"}],"outputs":[],"stateMutability":"nonpayable"},{"type":"function","name":"setDefaultReputationScoreByGov","inputs":[{"name":"newDefaultScore","type":"uint256","internalType":"uint256"}],"outputs":[],"stateMutability":"nonpayable"},{"type":"function","name":"setEmergencyAdmin","inputs":[{"name":"_newEmergencyAdmin","type":"address","internalType":"address"}],"outputs":[],"stateMutability":"nonpayable"},{"type":"function","name":"setGovernanceController","inputs":[{"name":"_newController","type":"address","internalType":"address"}],"outputs":[],"stateMutability":"nonpayable"},{"type":"function","name":"setGovernanceEnabled","inputs":[{"name":"_enabled","type":"bool","internalType":"bool"}],"outputs":[],"stateMutability":"nonpayable"},{"type":"function","name":"setMaxReputationScore","inputs":[{"name":"newMaxScore","type":"uint256","internalType":"uint256"}],"outputs":[],"stateMutability":"nonpayable"},{"type":"function","name":"setMinReputationScore","inputs":[{"name":"newMinScore","type":"uint256","internalType":"uint256"}],"outputs":[],"stateMutability":"nonpayable"},{"type":"function","name":"setReputationBounds","inputs":[{"name":"_minScore","type":"uint256","internalType":"uint256"},{"name":"_maxScore","type":"uint256","internalType":"uint256"}],"outputs":[],"stateMutability":"nonpayable"},{"type":"function","name":"setReputationOracle","inputs":[{"name":"_newOracle","type":"address","internalType":"address"}],"outputs":[],"stateMutability":"nonpayable"},{"type":"function","name":"setWeightedStakingEnabled","inputs":[{"name":"_enabled","type":"bool","internalType":"bool"}],"outputs":[],"stateMutability":"nonpayable"},{"type":"function","name":"supportsInterface","inputs":[{"name":"interfaceId","type":"bytes4","internalType":"bytes4"}],"outputs":[{"name":"","type":"bool","internalType":"bool"}],"stateMutability":"view"},{"type":"function","name":"weightedStakingEnabled","inputs":[],"outputs":[{"name":"","type":"bool","internalType":"bool"}],"stateMutability":"view"},{"type":"event","name":"DefaultReputationUpdated","inputs":[{"name":"newDefault","type":"uint256","indexed":false,"internalType":"uint256"}],"anonymous":false},{"type":"event","name":"EmergencyAdminUpdated","inputs":[{"name":"oldAdmin","type":"address","indexed":true,"internalType":"address"},{"name":"newAdmin","type":"address","indexed":true,"internalType":"address"}],"anonymous":false},{"type":"event","name":"GovernanceControllerUpdated","inputs":[{"name":"oldController","type":"address","indexed":true,"internalType":"address"},{"name":"newController","type":"address","indexed":true,"internalType":"address"}],"anonymous":false},{"type":"event","name":"GovernanceEnabledUpdated","inputs":[{"name":"enabled","type":"bool","indexed":true,"internalType":"bool"}],"anonymous":false},{"type":"event","name":"ParameterUpdatedByGovernance","inputs":[{"name":"paramId","type":"bytes32","indexed":true,"internalType":"bytes32"},{"name":"oldValue","type":"uint256","indexed":false,"internalType":"uint256"},{"name":"newValue","type":"uint256","indexed":false,"internalType":"uint256"}],"anonymous":false},{"type":"event","name":"Paused","inputs":[{"name":"account","type":"address","indexed":false,"internalType":"address"}],"anonymous":false},{"type":"event","name":"ReputationBoundsUpdated","inputs":[{"name":"minScore","type":"uint256","indexed":false,"internalType":"uint256"},{"name":"maxScore","type":"uint256","indexed":false,"internalType":"uint256"}],"anonymous":false},{"type":"event","name":"ReputationOracleUpdated","inputs":[{"name":"oldOracle","type":"address","indexed":true,"internalType":"address"},{"name":"newOracle","type":"address","indexed":true,"internalType":"address"}],"anonymous":false},{"type":"event","name":"RoleAdminChanged","inputs":[{"name":"role","type":"bytes32","indexed":true,"internalType":"bytes32"},{"name":"previousAdminRole","type":"bytes32","indexed":true,"internalType":"bytes32"},{"name":"newAdminRole","type":"bytes32","indexed":true,"internalType":"bytes32"}],"anonymous":false},{"type":"event","name":"RoleGranted","inputs":[{"name":"role","type":"bytes32","indexed":true,"internalType":"bytes32"},{"name":"account","type":"address","indexed":true,"internalType":"address"},{"name":"sender","type":"address","indexed":true,"internalType":"address"}],"anonymous":false},{"type":"event","name":"RoleRevoked","inputs":[{"name":"role","type":"bytes32","indexed":true,"internalType":"bytes32"},{"name":"account","type":"address","indexed":true,"internalType":"address"},{"name":"sender","type":"address","indexed":true,"internalType":"address"}],"anonymous":false},{"type":"event","name":"Unpaused","inputs":[{"name":"account","type":"address","indexed":false,"internalType":"address"}],"anonymous":false},{"type":"event","name":"WeightedStakeCalculated","inputs":[{"name":"user","type":"address","indexed":true,"internalType":"address"},{"name":"rawStake","type":"uint256","indexed":false,"internalType":"uint256"},{"name":"reputationScore","type":"uint256","indexed":false,"internalType":"uint256"},{"name":"effectiveStake","type":"uint256","indexed":false,"internalType":"uint256"},{"name":"weight","type":"uint256","indexed":false,"internalType":"uint256"}],"anonymous":false},{"type":"event","name":"WeightedStakingToggled","inputs":[{"name":"enabled","type":"bool","indexed":false,"internalType":"bool"}],"anonymous":false},{"type":"error","name":"AccessControlBadConfirmation","inputs":[]},{"type":"error","name":"AccessControlUnauthorizedAccount","inputs":[{"name":"account","type":"address","internalType":"address"},{"name":"neededRole","type":"bytes32","internalType":"bytes32"}]},{"type":"error","name":"EnforcedPause","inputs":[]},{"type":"error","name":"ExpectedPause","inputs":[]},{"type":"error","name":"GovernanceDisabled","inputs":[]},{"type":"error","name":"InvalidDefaultReputation","inputs":[]},{"type":"error","name":"InvalidReputationBounds","inputs":[]},{"type":"error","name":"InvalidReputationOracle","inputs":[]},{"type":"error","name":"OracleNotActive","inputs":[]},{"type":"error","name":"ReentrancyGuardReentrantCall","inputs":[]},{"type":"error","name":"UnauthorizedGovernance","inputs":[]},{"type":"error","name":"ZeroAddress","inputs":[]},{"type":"error","name":"ZeroStakeAmount","inputs":[]}],"bytecode":{"object":"0x60806040526001805460ff60a81b1916600160a81b17815567016345785d8a0000600455678ac7230489e80000600555670de0b6b3a76400006006556007805460ff19169091179055348015610053575f5ffd5b50604051611fc4380380611fc483398101604081905261007291610363565b60017f9b779b17422d0df92223018b32b4d1fa46e071723d6817e2486d003becc55f00556001600160a01b0383166100bd576040516329c711a360e21b815260040160405180910390fd5b6001600160a01b0382166101175760405162461bcd60e51b815260206004820152601560248201527f496e76616c69642061646d696e20616464726573730000000000000000000000604482015260640160405180910390fd5b600380546001600160a01b0319166001600160a01b03851617905561013c5f8361017b565b506101677fa49807205ce4d355092ef5a8a18f56e8913cf4a201fbe287825b095693c217758361017b565b50610173818380610224565b5050506103a3565b5f828152602081815260408083206001600160a01b038516845290915281205460ff1661021b575f838152602081815260408083206001600160a01b03861684529091529020805460ff191660011790556101d33390565b6001600160a01b0316826001600160a01b0316847f2f8788117e7eff1d82e926ec794901d17c78024a50270940304540a733656f0d60405160405180910390a450600161021e565b505f5b92915050565b6001600160a01b03821661024b5760405163d92e233d60e01b815260040160405180910390fd5b60018054610100600160a81b0319166101006001600160a01b038681169190910291909117909155600280546001600160a01b0319169183169190911790556102945f8361017b565b506102ac5f516020611fa45f395f51905f528361017b565b506001600160a01b038316156102d5576102d35f516020611f845f395f51905f528461017b565b505b6102f95f516020611f845f395f51905f525f516020611fa45f395f51905f526102fe565b505050565b5f82815260208190526040808220600101805490849055905190918391839186917fbd79b86ffe0ab8e8776151514217cd7cacd52c909f66475c3af44e129f0b00ff9190a4505050565b80516001600160a01b038116811461035e575f5ffd5b919050565b5f5f5f60608486031215610375575f5ffd5b61037e84610348565b925061038c60208501610348565b915061039a60408501610348565b90509250925092565b611bd4806103b05f395ff3fe608060405234801561000f575f5ffd5b5060043610610276575f3560e01c80637067525d11610156578063b3bd07d2116100ca578063d6da2cf711610084578063d6da2cf714610611578063f017960114610624578063f36c8f5c14610637578063fad844c11461064b578063fee2eeef1461065e578063ff12cb7414610671575f5ffd5b8063b3bd07d214610595578063bdb3c7f6146105bc578063c2b08890146105c5578063ce2661f1146105d8578063d19cfdac146105eb578063d547741f146105fe575f5ffd5b806391d148541161011b57806391d148541461053e578063947ec0e014610551578063a217fddf1461055a578063a2b4439314610561578063a84195ea14610570578063ad79715814610588575f5ffd5b80637067525d1461049e57806370905dce146104c557806375b238fc146104f057806377fb8d7a14610504578063841529061461052b575f5ffd5b806337d2d725116101ed5780634f1be76b116101b25780634f1be76b1461040c57806351858e271461041f57806357a25803146104275780635c975abb1461043a5780636bd50cef146104455780637011f9541461048b575f5ffd5b806337d2d725146103ae578063389bea4d146103c157806340654e8b146103ca5780634a4e3bd5146103f15780634bd758c7146103f9575f5ffd5b80631e5b59091161023e5780631e5b59091461030c578063248a9ca31461032c5780632f2ff15d1461034e57806335da33941461036157806336568abe1461037457806336b8bfed14610387575f5ffd5b806301ffc9a71461027a57806303b82d3c146102a25780630b3978fc146102c35780631048fc12146102d75780631956f01b146102f7575b5f5ffd5b61028d6102883660046117bd565b610678565b60405190151581526020015b60405180910390f35b6102b56102b0366004611808565b6106ae565b604051908152602001610299565b60015461028d90600160a81b900460ff1681565b6102ea6102e5366004611881565b6107ba565b60405161029991906118ed565b61030a610305366004611968565b6108fc565b005b61031f61031a366004611983565b6109a3565b60405161029991906119ab565b6102b561033a3660046119d6565b5f9081526020819052604090206001015490565b61030a61035c3660046119ed565b610a68565b61030a61036f366004611a0e565b610a92565b61030a6103823660046119ed565b610b15565b6102b57f3cabe95d2f698b3a6cd45d066b9cfa45be5257e028bd251e3fe542965c48eee081565b6102b56103bc366004611983565b610b4d565b6102b560065481565b6102b57febf3ca3afa73d8effaa6118e6512232ebbd925b7b5e8a5c91492e4e1a57d747381565b61030a610bf2565b61030a6104073660046119d6565b610c57565b61030a61041a3660046119d6565b610d66565b61030a610e6b565b6102b5610435366004611a27565b610ece565b60015460ff1661028d565b600354600454600554600654600754604080516001600160a01b039096168652602086019490945292840191909152606083015260ff161515608082015260a001610299565b61030a6104993660046119d6565b610f93565b6102b57fa9fdd4ba43ff1cd9f2071a0a864a44d7c9f3f89c97e13857fb8ad605f073fd3881565b6002546104d8906001600160a01b031681565b6040516001600160a01b039091168152602001610299565b6102b55f516020611b7f5f395f51905f5281565b6102b57fe7e0b301de1c1e268073a6b56ff0876cffca0becba0dca08f945c1394e3e972781565b61030a610539366004611a0e565b6110a3565b61028d61054c3660046119ed565b611166565b6102b560055481565b6102b55f81565b6102b5670de0b6b3a764000081565b6001546104d89061010090046001600160a01b031681565b60075461028d9060ff1681565b6102b57f8ca37b6686fc358814aae3630ba49703d88b93913d30d751e88f6d48e106778c81565b6102b560045481565b61030a6105d3366004611a41565b61118e565b61030a6105e6366004611968565b611218565b61030a6105f9366004611a0e565b61126b565b61030a61060c3660046119ed565b6112fb565b61030a61061f3660046119d6565b61131f565b61028d610632366004611a0e565b611392565b6102b55f516020611b5f5f395f51905f5281565b6003546104d8906001600160a01b031681565b6102b561066c366004611a0e565b6113d5565b60016102b5565b5f6001600160e01b03198216637965db0b60e01b14806106a857506301ffc9a760e01b6001600160e01b03198316145b92915050565b5f6106c65f516020611b5f5f395f51905f5233611166565b1580156106da57506106d85f33611166565b155b80156106f157506002546001600160a01b03163314155b1561070f5760405163e653962160e01b815260040160405180910390fd5b60015461010090046001600160a01b031661073d5760405163d92e233d60e01b815260040160405180910390fd5b60015460405163e2f4f82360e01b81526101009091046001600160a01b03169063e2f4f823906107739086908690600401611a81565b6020604051808303815f875af115801561078f573d5f5f3e3d5ffd5b505050506040513d601f19601f820116820180604052508101906107b39190611aa7565b9392505050565b60608382146108085760405162461bcd60e51b8152602060048201526015602482015274082e4e4c2f240d8cadccee8d040dad2e6dac2e8c6d605b1b60448201526064015b60405180910390fd5b8367ffffffffffffffff81111561082157610821611abe565b60405190808252806020026020018201604052801561087957816020015b61086660405180608001604052805f81526020015f81526020015f81526020015f81525090565b81526020019060019003908161083f5790505b5090505f5b848110156108f3576108ce86868381811061089b5761089b611ad2565b90506020020160208101906108b09190611a0e565b8585848181106108c2576108c2611ad2565b905060200201356109a3565b8282815181106108e0576108e0611ad2565b602090810291909101015260010161087e565b50949350505050565b6109135f516020611b5f5f395f51905f5233611166565b15801561092757506109255f33611166565b155b801561093e57506002546001600160a01b03163314155b1561095c5760405163e653962160e01b815260040160405180910390fd5b6007805460ff19168215159081179091556040519081527fc174868e01e9d4ef87f5038e9e19c12c38b8771d521e328b802429222b44fcb59060200160405180910390a150565b6109ca60405180608001604052805f81526020015f81526020015f81526020015f81525090565b815f036109ea5760405163f69a94d360e01b815260040160405180910390fd5b81815260075460ff16610a1857670de0b6b3a7640000602082018190526060820152604081018290526106a8565b5f610a2284611405565b90505f610a2e8261150e565b60208401819052606084018190529050670de0b6b3a7640000610a518286611ae6565b610a5b9190611b09565b6040840152505092915050565b5f82815260208190526040902060010154610a8281611537565b610a8c8383611544565b50505050565b5f610a9c81611537565b6001600160a01b038216610ac35760405163d92e233d60e01b815260040160405180910390fd5b600280546001600160a01b038481166001600160a01b0319831681179093556040519116919082907fd33e3f943e596f2b7b99ed1a5330e4ff9e1a603b1c0bf9866f8c83e8ddb065f2905f90a3505050565b6001600160a01b0381163314610b3e5760405163334bd91960e11b815260040160405180910390fd5b610b4882826115d3565b505050565b5f610b5661163c565b5f610b6184846109a3565b8051602080830151604080850151606080870151835196875294860193909352908401528201529091506001600160a01b038516907f9ac1d941d0bb44a1746cfa93925bf483719a905eb6358d37f35c1fb14e85a22a9060800160405180910390a26040015190506106a860017f9b779b17422d0df92223018b32b4d1fa46e071723d6817e2486d003becc55f0055565b6002546001600160a01b0316331480610c105750610c105f33611166565b610c4d5760405162461bcd60e51b815260206004820152600e60248201526d139bdd08185d5d1a1bdc9a5e995960921b60448201526064016107ff565b610c5561166a565b565b610c6e5f516020611b5f5f395f51905f5233611166565b158015610c825750610c805f33611166565b155b8015610c9957506002546001600160a01b03163314155b15610cb75760405163e653962160e01b815260040160405180910390fd5b5f8111610cfe5760405162461bcd60e51b8152602060048201526015602482015274496e76616c69642064656661756c742073636f726560581b60448201526064016107ff565b600680549082905560408051828152602081018490527febf3ca3afa73d8effaa6118e6512232ebbd925b7b5e8a5c91492e4e1a57d7473917f59d657359512cd63e5622af1c9696c1ba638c643e928d4c04c720f367138015f91015b60405180910390a25050565b610d7d5f516020611b5f5f395f51905f5233611166565b158015610d915750610d8f5f33611166565b155b8015610da857506002546001600160a01b03163314155b15610dc65760405163e653962160e01b815260040160405180910390fd5b6004548111610e0b5760405162461bcd60e51b8152602060048201526011602482015270496e76616c6964206d61782073636f726560781b60448201526064016107ff565b600580549082905560408051828152602081018490527f3cabe95d2f698b3a6cd45d066b9cfa45be5257e028bd251e3fe542965c48eee0917f59d657359512cd63e5622af1c9696c1ba638c643e928d4c04c720f367138015f9101610d5a565b6002546001600160a01b0316331480610e895750610e895f33611166565b610ec65760405162461bcd60e51b815260206004820152600e60248201526d139bdd08185d5d1a1bdc9a5e995960921b60448201526064016107ff565b610c556116bc565b5f610ee65f516020611b5f5f395f51905f5233611166565b158015610efa5750610ef85f33611166565b155b8015610f1157506002546001600160a01b03163314155b15610f2f5760405163e653962160e01b815260040160405180910390fd5b60015461010090046001600160a01b0316610f5d5760405163d92e233d60e01b815260040160405180910390fd5b600154604051638d34372b60e01b81526101009091046001600160a01b031690638d34372b906107739086908690600401611b28565b610faa5f516020611b5f5f395f51905f5233611166565b158015610fbe5750610fbc5f33611166565b155b8015610fd557506002546001600160a01b03163314155b15610ff35760405163e653962160e01b815260040160405180910390fd5b5f81118015611003575060055481105b6110435760405162461bcd60e51b8152602060048201526011602482015270496e76616c6964206d696e2073636f726560781b60448201526064016107ff565b600480549082905560408051828152602081018490527f8ca37b6686fc358814aae3630ba49703d88b93913d30d751e88f6d48e106778c917f59d657359512cd63e5622af1c9696c1ba638c643e928d4c04c720f367138015f9101610d5a565b5f6110ad81611537565b60015461010090046001600160a01b031680156110dd576110db5f516020611b5f5f395f51905f52826115d3565b505b60018054610100600160a81b0319166101006001600160a01b03861690810291909117909155156111215761111f5f516020611b5f5f395f51905f5284611544565b505b826001600160a01b0316816001600160a01b03167f3b4545e5eddeaf93078116be9179dee76a26c4b60d502de3a660ba7f1277f65c60405160405180910390a3505050565b5f918252602082815260408084206001600160a01b0393909316845291905290205460ff1690565b5f516020611b7f5f395f51905f526111a581611537565b8215806111b25750818310155b156111d05760405163427fa00f60e01b815260040160405180910390fd5b6004839055600582905560408051848152602081018490527f32fc046ecb6d2d261ca468e1c5a649ac4ad9e7c5bd0f27cd4df996060f9290be910160405180910390a1505050565b5f61122281611537565b6001805460ff60a81b1916600160a81b841515908102919091179091556040517f920f1adeb0f6efa8584984bf3cb6461ecd85827e6b18b4d99d74840b21a005b5905f90a25050565b5f516020611b7f5f395f51905f5261128281611537565b6001600160a01b0382166112a9576040516329c711a360e21b815260040160405180910390fd5b600380546001600160a01b038481166001600160a01b0319831681179093556040519116919082907f5b367b86f486a97bb7ae5ed7a92fc670d58bf46c7643345eda46ffa3d0ec6fa4905f90a3505050565b5f8281526020819052604090206001015461131581611537565b610a8c83836115d3565b5f516020611b7f5f395f51905f5261133681611537565b815f0361135657604051636692bf0960e01b815260040160405180910390fd5b60068290556040518281527f580ddb18be67cd063b6527dc0c95dd514c7c43b022b5347568b51130df3389909060200160405180910390a15050565b5f6113aa5f516020611b5f5f395f51905f5283611166565b806113ba57506113ba5f83611166565b806106a85750506002546001600160a01b0390811691161490565b6007545f9060ff166113f05750670de0b6b3a7640000919050565b5f6113fa83611405565b90506107b38161150e565b600354604080516308bcf8b560e21b815290515f926001600160a01b0316916322f3e2d49160048083019260209291908290030181865afa92505050801561146a575060408051601f3d908101601f1916820190925261146791810190611b43565b60015b61147657505060065490565b80611485575050600654919050565b50600354604051631d699f5760e21b81526001600160a01b038481166004830152909116906375a67d5c90602401602060405180830381865afa9250505080156114ec575060408051601f3d908101601f191682019092526114e991810190611aa7565b60015b6114f857505060065490565b805f036106a8575050600654919050565b919050565b5f60045482101561152157505060045490565b60055482111561153357505060055490565b5090565b61154181336116f7565b50565b5f61154f8383611166565b6115cc575f838152602081815260408083206001600160a01b03861684529091529020805460ff191660011790556115843390565b6001600160a01b0316826001600160a01b0316847f2f8788117e7eff1d82e926ec794901d17c78024a50270940304540a733656f0d60405160405180910390a45060016106a8565b505f6106a8565b5f6115de8383611166565b156115cc575f838152602081815260408083206001600160a01b0386168085529252808320805460ff1916905551339286917ff6391f5c32d9c69d2a47ea670b442974b53935d1edc7fd64eb21e047a839171b9190a45060016106a8565b611644611734565b60027f9b779b17422d0df92223018b32b4d1fa46e071723d6817e2486d003becc55f0055565b611672611776565b6001805460ff191690557f5db9ee0a495bf2e6ff9c91a7834c1ba4fdd244a5e8aa4e537bd38aeae4b073aa335b6040516001600160a01b03909116815260200160405180910390a1565b6116c4611799565b6001805460ff1916811790557f62e78cea01bee320cd4e420270b5ea74000d11b0c9f74754ebdbfc544b05a2583361169f565b6117018282611166565b6117305760405163e2517d3f60e01b81526001600160a01b0382166004820152602481018390526044016107ff565b5050565b7f9b779b17422d0df92223018b32b4d1fa46e071723d6817e2486d003becc55f0054600203610c5557604051633ee5aeb560e01b815260040160405180910390fd5b60015460ff16610c5557604051638dfc202b60e01b815260040160405180910390fd5b60015460ff1615610c555760405163d93c066560e01b815260040160405180910390fd5b5f602082840312156117cd575f5ffd5b81356001600160e01b0319811681146107b3575f5ffd5b803560128110611509575f5ffd5b80356001600160a01b0381168114611509575f5ffd5b5f5f60408385031215611819575f5ffd5b611822836117e4565b9150611830602084016117f2565b90509250929050565b5f5f83601f840112611849575f5ffd5b50813567ffffffffffffffff811115611860575f5ffd5b6020830191508360208260051b850101111561187a575f5ffd5b9250929050565b5f5f5f5f60408587031215611894575f5ffd5b843567ffffffffffffffff8111156118aa575f5ffd5b6118b687828801611839565b909550935050602085013567ffffffffffffffff8111156118d5575f5ffd5b6118e187828801611839565b95989497509550505050565b602080825282518282018190525f918401906040840190835b818110156119505761193a838551805182526020810151602083015260408101516040830152606081015160608301525050565b6020939093019260809290920191600101611906565b509095945050505050565b8015158114611541575f5ffd5b5f60208284031215611978575f5ffd5b81356107b38161195b565b5f5f60408385031215611994575f5ffd5b61199d836117f2565b946020939093013593505050565b81518152602080830151908201526040808301519082015260608083015190820152608081016106a8565b5f602082840312156119e6575f5ffd5b5035919050565b5f5f604083850312156119fe575f5ffd5b82359150611830602084016117f2565b5f60208284031215611a1e575f5ffd5b6107b3826117f2565b5f5f60408385031215611a38575f5ffd5b61199d836117e4565b5f5f60408385031215611a52575f5ffd5b50508035926020909101359150565b60128110611a7d57634e487b7160e01b5f52602160045260245ffd5b9052565b60408101611a8f8285611a61565b6001600160a01b039290921660209190910152919050565b5f60208284031215611ab7575f5ffd5b5051919050565b634e487b7160e01b5f52604160045260245ffd5b634e487b7160e01b5f52603260045260245ffd5b80820281158282048414176106a857634e487b7160e01b5f52601160045260245ffd5b5f82611b2357634e487b7160e01b5f52601260045260245ffd5b500490565b60408101611b368285611a61565b8260208301529392505050565b5f60208284031215611b53575f5ffd5b81516107b38161195b56fe71840dc4906352362b0cdaf79870196c8e42acafade72d5d5a6d59291253ceb1a49807205ce4d355092ef5a8a18f56e8913cf4a201fbe287825b095693c21775a2646970667358221220bfbb59bcf58650d0c3f78c8867fd11a62b3c572c12e5c8bb35f14d85e087cbc764736f6c6343000823003371840dc4906352362b0cdaf79870196c8e42acafade72d5d5a6d59291253ceb1e7e0b301de1c1e268073a6b56ff0876cffca0becba0dca08f945c1394e3e9727","linkReferences":{}},"methodIdentifiers":{"ADMIN_ROLE()":"75b238fc","BASE_MULTIPLIER()":"a2b44393","DEFAULT_ADMIN_ROLE()":"a217fddf","GOVERNANCE_ADMIN_ROLE()":"77fb8d7a","GOVERNANCE_PARAM_DEFAULT_REP()":"40654e8b","GOVERNANCE_PARAM_MAX_REP()":"36b8bfed","GOVERNANCE_PARAM_MIN_REP()":"b3bd07d2","GOVERNANCE_PARAM_WEIGHTED_ENABLED()":"7067525d","GOVERNANCE_ROLE()":"f36c8f5c","batchCalculateWeightedStake(address[],uint256[])":"1048fc12","calculateAndRecordWeightedStake(address,uint256)":"37d2d725","calculateWeightedStake(address,uint256)":"1e5b5909","defaultReputationScore()":"389bea4d","emergencyAdmin()":"70905dce","emergencyPause()":"51858e27","emergencyUnpause()":"4a4e3bd5","getConfiguration()":"6bd50cef","getGovernanceVersion()":"ff12cb74","getRoleAdmin(bytes32)":"248a9ca3","governanceController()":"a84195ea","governanceEnabled()":"0b3978fc","grantRole(bytes32,address)":"2f2ff15d","hasGovernanceRights(address)":"f0179601","hasRole(bytes32,address)":"91d14854","maxReputationScore()":"947ec0e0","minReputationScore()":"bdb3c7f6","paused()":"5c975abb","previewWeight(address)":"fee2eeef","renounceRole(bytes32,address)":"36568abe","reputationOracle()":"fad844c1","requestGovernanceAddressUpdate(uint8,address)":"03b82d3c","requestGovernanceParameterUpdate(uint8,uint256)":"57a25803","revokeRole(bytes32,address)":"d547741f","setDefaultReputationScore(uint256)":"d6da2cf7","setDefaultReputationScoreByGov(uint256)":"4bd758c7","setEmergencyAdmin(address)":"35da3394","setGovernanceController(address)":"84152906","setGovernanceEnabled(bool)":"ce2661f1","setMaxReputationScore(uint256)":"4f1be76b","setMinReputationScore(uint256)":"7011f954","setReputationBounds(uint256,uint256)":"c2b08890","setReputationOracle(address)":"d19cfdac","setWeightedStakingEnabled(bool)":"1956f01b","supportsInterface(bytes4)":"01ffc9a7","weightedStakingEnabled()":"ad797158"},"id":3}