{"abi":[{"type":"constructor","inputs":[{"name":"_bountyToken","type":"address","internalType":"address"},{"name":"_reputationOracle","type":"address","internalType":"address"},{"name":"initialAdmin","type":"address","internalType":"address"},{"name":"_governanceController","type":"address","internalType":"address"}],"stateMutability":"nonpayable"},{"type":"function","name":"ADMIN_ROLE","inputs":[],"outputs":[{"name":"","type":"bytes32","internalType":"bytes32"}],"stateMutability":"view"},{"type":"function","name":"BASE_MULTIPLIER","inputs":[],"outputs":[{"name":"","type":"uint256","internalType":"uint256"}],"stateMutability":"view"},{"type":"function","name":"DEFAULT_ADMIN_ROLE","inputs":[],"outputs":[{"name":"","type":"bytes32","internalType":"bytes32"}],"stateMutability":"view"},{"type":"function","name":"DEFAULT_MIN_STAKE_AMOUNT","inputs":[],"outputs":[{"name":"","type":"uint256","internalType":"uint256"}],"stateMutability":"view"},{"type":"function","name":"DEFAULT_REPUTATION_SCORE","inputs":[],"outputs":[{"name":"","type":"uint256","internalType":"uint256"}],"stateMutability":"view"},{"type":"function","name":"DEFAULT_REWARD_PERCENT","inputs":[],"outputs":[{"name":"","type":"uint256","internalType":"uint256"}],"stateMutability":"view"},{"type":"function","name":"DEFAULT_SETTLEMENT_THRESHOLD_PERCENT","inputs":[],"outputs":[{"name":"","type":"uint256","internalType":"uint256"}],"stateMutability":"view"},{"type":"function","name":"DEFAULT_SLASH_PERCENT","inputs":[],"outputs":[{"name":"","type":"uint256","internalType":"uint256"}],"stateMutability":"view"},{"type":"function","name":"DEFAULT_VERIFICATION_WINDOW_DURATION","inputs":[],"outputs":[{"name":"","type":"uint256","internalType":"uint256"}],"stateMutability":"view"},{"type":"function","name":"GOVERNANCE_ADMIN_ROLE","inputs":[],"outputs":[{"name":"","type":"bytes32","internalType":"bytes32"}],"stateMutability":"view"},{"type":"function","name":"GOVERNANCE_PARAM_CONFIRMATION_DELAY","inputs":[],"outputs":[{"name":"","type":"bytes32","internalType":"bytes32"}],"stateMutability":"view"},{"type":"function","name":"GOVERNANCE_PARAM_MIN_STAKE","inputs":[],"outputs":[{"name":"","type":"bytes32","internalType":"bytes32"}],"stateMutability":"view"},{"type":"function","name":"GOVERNANCE_PARAM_REWARD","inputs":[],"outputs":[{"name":"","type":"bytes32","internalType":"bytes32"}],"stateMutability":"view"},{"type":"function","name":"GOVERNANCE_PARAM_SLASH","inputs":[],"outputs":[{"name":"","type":"bytes32","internalType":"bytes32"}],"stateMutability":"view"},{"type":"function","name":"GOVERNANCE_PARAM_THRESHOLD","inputs":[],"outputs":[{"name":"","type":"bytes32","internalType":"bytes32"}],"stateMutability":"view"},{"type":"function","name":"GOVERNANCE_PARAM_VERIFICATION_WINDOW","inputs":[],"outputs":[{"name":"","type":"bytes32","internalType":"bytes32"}],"stateMutability":"view"},{"type":"function","name":"GOVERNANCE_ROLE","inputs":[],"outputs":[{"name":"","type":"bytes32","internalType":"bytes32"}],"stateMutability":"view"},{"type":"function","name":"MAX_REPUTATION_SCORE","inputs":[],"outputs":[{"name":"","type":"uint256","internalType":"uint256"}],"stateMutability":"view"},{"type":"function","name":"MAX_VERIFICATION_WINDOW_DURATION","inputs":[],"outputs":[{"name":"","type":"uint256","internalType":"uint256"}],"stateMutability":"view"},{"type":"function","name":"MIN_REPUTATION_SCORE","inputs":[],"outputs":[{"name":"","type":"uint256","internalType":"uint256"}],"stateMutability":"view"},{"type":"function","name":"MIN_VERIFICATION_WINDOW_DURATION","inputs":[],"outputs":[{"name":"","type":"uint256","internalType":"uint256"}],"stateMutability":"view"},{"type":"function","name":"PAUSER_ROLE","inputs":[],"outputs":[{"name":"","type":"bytes32","internalType":"bytes32"}],"stateMutability":"view"},{"type":"function","name":"PERCENT_DENOMINATOR","inputs":[],"outputs":[{"name":"","type":"uint256","internalType":"uint256"}],"stateMutability":"view"},{"type":"function","name":"RESOLVER_ROLE","inputs":[],"outputs":[{"name":"","type":"bytes32","internalType":"bytes32"}],"stateMutability":"view"},{"type":"function","name":"TOKEN_DECIMALS_MULTIPLIER","inputs":[],"outputs":[{"name":"","type":"uint256","internalType":"uint256"}],"stateMutability":"view"},{"type":"function","name":"TREASURY_ROLE","inputs":[],"outputs":[{"name":"","type":"bytes32","internalType":"bytes32"}],"stateMutability":"view"},{"type":"function","name":"bountyToken","inputs":[],"outputs":[{"name":"","type":"address","internalType":"contract IERC20"}],"stateMutability":"view"},{"type":"function","name":"claimCounter","inputs":[],"outputs":[{"name":"","type":"uint256","internalType":"uint256"}],"stateMutability":"view"},{"type":"function","name":"claimSettlementRewards","inputs":[{"name":"claimId","type":"uint256","internalType":"uint256"}],"outputs":[],"stateMutability":"nonpayable"},{"type":"function","name":"claims","inputs":[{"name":"","type":"uint256","internalType":"uint256"}],"outputs":[{"name":"id","type":"uint256","internalType":"uint256"},{"name":"submitter","type":"address","internalType":"address"},{"name":"content","type":"string","internalType":"string"},{"name":"createdAt","type":"uint256","internalType":"uint256"},{"name":"verificationWindowEnd","type":"uint256","internalType":"uint256"},{"name":"settled","type":"bool","internalType":"bool"},{"name":"totalWeightedFor","type":"uint256","internalType":"uint256"},{"name":"totalWeightedAgainst","type":"uint256","internalType":"uint256"},{"name":"totalStakeAmount","type":"uint256","internalType":"uint256"}],"stateMutability":"view"},{"type":"function","name":"confirmationDelay","inputs":[],"outputs":[{"name":"","type":"uint256","internalType":"uint256"}],"stateMutability":"view"},{"type":"function","name":"createClaim","inputs":[{"name":"content","type":"string","internalType":"string"}],"outputs":[{"name":"","type":"uint256","internalType":"uint256"}],"stateMutability":"nonpayable"},{"type":"function","name":"defaultReputationScore","inputs":[],"outputs":[{"name":"","type":"uint256","internalType":"uint256"}],"stateMutability":"view"},{"type":"function","name":"emergencyAdmin","inputs":[],"outputs":[{"name":"","type":"address","internalType":"address"}],"stateMutability":"view"},{"type":"function","name":"emergencyPause","inputs":[],"outputs":[],"stateMutability":"nonpayable"},{"type":"function","name":"emergencyUnpause","inputs":[],"outputs":[],"stateMutability":"nonpayable"},{"type":"function","name":"getClaim","inputs":[{"name":"claimId","type":"uint256","internalType":"uint256"}],"outputs":[{"name":"","type":"tuple","internalType":"struct TruthBountyWeighted.Claim","components":[{"name":"id","type":"uint256","internalType":"uint256"},{"name":"submitter","type":"address","internalType":"address"},{"name":"content","type":"string","internalType":"string"},{"name":"createdAt","type":"uint256","internalType":"uint256"},{"name":"verificationWindowEnd","type":"uint256","internalType":"uint256"},{"name":"settled","type":"bool","internalType":"bool"},{"name":"totalWeightedFor","type":"uint256","internalType":"uint256"},{"name":"totalWeightedAgainst","type":"uint256","internalType":"uint256"},{"name":"totalStakeAmount","type":"uint256","internalType":"uint256"}]}],"stateMutability":"view"},{"type":"function","name":"getGovernanceVersion","inputs":[],"outputs":[{"name":"","type":"uint256","internalType":"uint256"}],"stateMutability":"view"},{"type":"function","name":"getRoleAdmin","inputs":[{"name":"role","type":"bytes32","internalType":"bytes32"}],"outputs":[{"name":"","type":"bytes32","internalType":"bytes32"}],"stateMutability":"view"},{"type":"function","name":"getVerifierStake","inputs":[{"name":"verifier","type":"address","internalType":"address"}],"outputs":[{"name":"","type":"tuple","internalType":"struct TruthBountyWeighted.VerifierStake","components":[{"name":"totalStaked","type":"uint256","internalType":"uint256"},{"name":"activeStakes","type":"uint256","internalType":"uint256"},{"name":"exitTime","type":"uint256","internalType":"uint256"}]}],"stateMutability":"view"},{"type":"function","name":"getVote","inputs":[{"name":"claimId","type":"uint256","internalType":"uint256"},{"name":"verifier","type":"address","internalType":"address"}],"outputs":[{"name":"","type":"tuple","internalType":"struct TruthBountyWeighted.Vote","components":[{"name":"voted","type":"bool","internalType":"bool"},{"name":"support","type":"bool","internalType":"bool"},{"name":"stakeAmount","type":"uint256","internalType":"uint256"},{"name":"effectiveStake","type":"uint256","internalType":"uint256"},{"name":"reputationScore","type":"uint256","internalType":"uint256"},{"name":"rewardClaimed","type":"bool","internalType":"bool"},{"name":"stakeReturned","type":"bool","internalType":"bool"},{"name":"slashAmount","type":"uint256","internalType":"uint256"}]}],"stateMutability":"view"},{"type":"function","name":"governanceController","inputs":[],"outputs":[{"name":"","type":"address","internalType":"address"}],"stateMutability":"view"},{"type":"function","name":"governanceEnabled","inputs":[],"outputs":[{"name":"","type":"bool","internalType":"bool"}],"stateMutability":"view"},{"type":"function","name":"grantRole","inputs":[{"name":"role","type":"bytes32","internalType":"bytes32"},{"name":"account","type":"address","internalType":"address"}],"outputs":[],"stateMutability":"nonpayable"},{"type":"function","name":"hasGovernanceRights","inputs":[{"name":"account","type":"address","internalType":"address"}],"outputs":[{"name":"","type":"bool","internalType":"bool"}],"stateMutability":"view"},{"type":"function","name":"hasRole","inputs":[{"name":"role","type":"bytes32","internalType":"bytes32"},{"name":"account","type":"address","internalType":"address"}],"outputs":[{"name":"","type":"bool","internalType":"bool"}],"stateMutability":"view"},{"type":"function","name":"maxReputationScore","inputs":[],"outputs":[{"name":"","type":"uint256","internalType":"uint256"}],"stateMutability":"view"},{"type":"function","name":"minReputationScore","inputs":[],"outputs":[{"name":"","type":"uint256","internalType":"uint256"}],"stateMutability":"view"},{"type":"function","name":"minStakeAmount","inputs":[],"outputs":[{"name":"","type":"uint256","internalType":"uint256"}],"stateMutability":"view"},{"type":"function","name":"pause","inputs":[],"outputs":[],"stateMutability":"nonpayable"},{"type":"function","name":"paused","inputs":[],"outputs":[{"name":"","type":"bool","internalType":"bool"}],"stateMutability":"view"},{"type":"function","name":"previewEffectiveStake","inputs":[{"name":"user","type":"address","internalType":"address"},{"name":"stakeAmount","type":"uint256","internalType":"uint256"}],"outputs":[{"name":"effectiveStake","type":"uint256","internalType":"uint256"},{"name":"reputationScore","type":"uint256","internalType":"uint256"}],"stateMutability":"view"},{"type":"function","name":"renounceRole","inputs":[{"name":"role","type":"bytes32","internalType":"bytes32"},{"name":"callerConfirmation","type":"address","internalType":"address"}],"outputs":[],"stateMutability":"nonpayable"},{"type":"function","name":"reputationOracle","inputs":[],"outputs":[{"name":"","type":"address","internalType":"contract IReputationOracle"}],"stateMutability":"view"},{"type":"function","name":"requestGovernanceAddressUpdate","inputs":[{"name":"paramType","type":"uint8","internalType":"enum GovernanceHooks.ParameterType"},{"name":"newAddress","type":"address","internalType":"address"}],"outputs":[{"name":"proposalId","type":"bytes32","internalType":"bytes32"}],"stateMutability":"nonpayable"},{"type":"function","name":"requestGovernanceParameterUpdate","inputs":[{"name":"paramType","type":"uint8","internalType":"enum GovernanceHooks.ParameterType"},{"name":"newValue","type":"uint256","internalType":"uint256"}],"outputs":[{"name":"proposalId","type":"bytes32","internalType":"bytes32"}],"stateMutability":"nonpayable"},{"type":"function","name":"revokeRole","inputs":[{"name":"role","type":"bytes32","internalType":"bytes32"},{"name":"account","type":"address","internalType":"address"}],"outputs":[],"stateMutability":"nonpayable"},{"type":"function","name":"rewardPercent","inputs":[],"outputs":[{"name":"","type":"uint256","internalType":"uint256"}],"stateMutability":"view"},{"type":"function","name":"setConfirmationDelay","inputs":[{"name":"newDelay","type":"uint256","internalType":"uint256"}],"outputs":[],"stateMutability":"nonpayable"},{"type":"function","name":"setDefaultReputationScore","inputs":[{"name":"_defaultScore","type":"uint256","internalType":"uint256"}],"outputs":[],"stateMutability":"nonpayable"},{"type":"function","name":"setEmergencyAdmin","inputs":[{"name":"_newEmergencyAdmin","type":"address","internalType":"address"}],"outputs":[],"stateMutability":"nonpayable"},{"type":"function","name":"setGovernanceController","inputs":[{"name":"_newController","type":"address","internalType":"address"}],"outputs":[],"stateMutability":"nonpayable"},{"type":"function","name":"setGovernanceEnabled","inputs":[{"name":"_enabled","type":"bool","internalType":"bool"}],"outputs":[],"stateMutability":"nonpayable"},{"type":"function","name":"setMinStakeAmount","inputs":[{"name":"newAmount","type":"uint256","internalType":"uint256"}],"outputs":[],"stateMutability":"nonpayable"},{"type":"function","name":"setReputationBounds","inputs":[{"name":"_minScore","type":"uint256","internalType":"uint256"},{"name":"_maxScore","type":"uint256","internalType":"uint256"}],"outputs":[],"stateMutability":"nonpayable"},{"type":"function","name":"setReputationOracle","inputs":[{"name":"_newOracle","type":"address","internalType":"address"}],"outputs":[],"stateMutability":"nonpayable"},{"type":"function","name":"setRewardPercent","inputs":[{"name":"newPercent","type":"uint256","internalType":"uint256"}],"outputs":[],"stateMutability":"nonpayable"},{"type":"function","name":"setSettlementThresholdPercent","inputs":[{"name":"newThreshold","type":"uint256","internalType":"uint256"}],"outputs":[],"stateMutability":"nonpayable"},{"type":"function","name":"setSlashPercent","inputs":[{"name":"newPercent","type":"uint256","internalType":"uint256"}],"outputs":[],"stateMutability":"nonpayable"},{"type":"function","name":"setVerificationWindowDuration","inputs":[{"name":"newDuration","type":"uint256","internalType":"uint256"}],"outputs":[],"stateMutability":"nonpayable"},{"type":"function","name":"setWeightedStakingEnabled","inputs":[{"name":"_enabled","type":"bool","internalType":"bool"}],"outputs":[],"stateMutability":"nonpayable"},{"type":"function","name":"settleClaim","inputs":[{"name":"claimId","type":"uint256","internalType":"uint256"}],"outputs":[],"stateMutability":"nonpayable"},{"type":"function","name":"settlementResults","inputs":[{"name":"","type":"uint256","internalType":"uint256"}],"outputs":[{"name":"passed","type":"bool","internalType":"bool"},{"name":"totalRewards","type":"uint256","internalType":"uint256"},{"name":"totalSlashed","type":"uint256","internalType":"uint256"},{"name":"winnerWeightedStake","type":"uint256","internalType":"uint256"},{"name":"loserWeightedStake","type":"uint256","internalType":"uint256"},{"name":"claimedWinnerWeightedStake","type":"uint256","internalType":"uint256"},{"name":"distributedRewards","type":"uint256","internalType":"uint256"}],"stateMutability":"view"},{"type":"function","name":"settlementThresholdPercent","inputs":[],"outputs":[{"name":"","type":"uint256","internalType":"uint256"}],"stateMutability":"view"},{"type":"function","name":"slashPercent","inputs":[],"outputs":[{"name":"","type":"uint256","internalType":"uint256"}],"stateMutability":"view"},{"type":"function","name":"stake","inputs":[{"name":"amount","type":"uint256","internalType":"uint256"}],"outputs":[],"stateMutability":"nonpayable"},{"type":"function","name":"supportsInterface","inputs":[{"name":"interfaceId","type":"bytes4","internalType":"bytes4"}],"outputs":[{"name":"","type":"bool","internalType":"bool"}],"stateMutability":"view"},{"type":"function","name":"totalRewarded","inputs":[],"outputs":[{"name":"","type":"uint256","internalType":"uint256"}],"stateMutability":"view"},{"type":"function","name":"totalSlashed","inputs":[],"outputs":[{"name":"","type":"uint256","internalType":"uint256"}],"stateMutability":"view"},{"type":"function","name":"unpause","inputs":[],"outputs":[],"stateMutability":"nonpayable"},{"type":"function","name":"updateBountyToken","inputs":[{"name":"_newBountyToken","type":"address","internalType":"address"}],"outputs":[],"stateMutability":"nonpayable"},{"type":"function","name":"verificationWindowDuration","inputs":[],"outputs":[{"name":"","type":"uint256","internalType":"uint256"}],"stateMutability":"view"},{"type":"function","name":"verifierStakes","inputs":[{"name":"","type":"address","internalType":"address"}],"outputs":[{"name":"totalStaked","type":"uint256","internalType":"uint256"},{"name":"activeStakes","type":"uint256","internalType":"uint256"},{"name":"exitTime","type":"uint256","internalType":"uint256"}],"stateMutability":"view"},{"type":"function","name":"vote","inputs":[{"name":"claimId","type":"uint256","internalType":"uint256"},{"name":"support","type":"bool","internalType":"bool"},{"name":"stakeAmount","type":"uint256","internalType":"uint256"}],"outputs":[],"stateMutability":"nonpayable"},{"type":"function","name":"votes","inputs":[{"name":"","type":"uint256","internalType":"uint256"},{"name":"","type":"address","internalType":"address"}],"outputs":[{"name":"voted","type":"bool","internalType":"bool"},{"name":"support","type":"bool","internalType":"bool"},{"name":"stakeAmount","type":"uint256","internalType":"uint256"},{"name":"effectiveStake","type":"uint256","internalType":"uint256"},{"name":"reputationScore","type":"uint256","internalType":"uint256"},{"name":"rewardClaimed","type":"bool","internalType":"bool"},{"name":"stakeReturned","type":"bool","internalType":"bool"},{"name":"slashAmount","type":"uint256","internalType":"uint256"}],"stateMutability":"view"},{"type":"function","name":"weightedStakingEnabled","inputs":[],"outputs":[{"name":"","type":"bool","internalType":"bool"}],"stateMutability":"view"},{"type":"function","name":"withdrawSettledStake","inputs":[{"name":"claimId","type":"uint256","internalType":"uint256"}],"outputs":[],"stateMutability":"nonpayable"},{"type":"function","name":"withdrawStake","inputs":[{"name":"amount","type":"uint256","internalType":"uint256"}],"outputs":[],"stateMutability":"nonpayable"},{"type":"event","name":"ClaimCreated","inputs":[{"name":"claimId","type":"uint256","indexed":true,"internalType":"uint256"},{"name":"submitter","type":"address","indexed":true,"internalType":"address"},{"name":"content","type":"string","indexed":false,"internalType":"string"},{"name":"verificationWindowEnd","type":"uint256","indexed":false,"internalType":"uint256"}],"anonymous":false},{"type":"event","name":"ClaimSettled","inputs":[{"name":"claimId","type":"uint256","indexed":true,"internalType":"uint256"},{"name":"passed","type":"bool","indexed":false,"internalType":"bool"},{"name":"totalWeightedFor","type":"uint256","indexed":false,"internalType":"uint256"},{"name":"totalWeightedAgainst","type":"uint256","indexed":false,"internalType":"uint256"},{"name":"totalRewards","type":"uint256","indexed":false,"internalType":"uint256"},{"name":"totalSlashed","type":"uint256","indexed":false,"internalType":"uint256"}],"anonymous":false},{"type":"event","name":"EmergencyAdminUpdated","inputs":[{"name":"oldAdmin","type":"address","indexed":true,"internalType":"address"},{"name":"newAdmin","type":"address","indexed":true,"internalType":"address"}],"anonymous":false},{"type":"event","name":"GovernanceControllerUpdated","inputs":[{"name":"oldController","type":"address","indexed":true,"internalType":"address"},{"name":"newController","type":"address","indexed":true,"internalType":"address"}],"anonymous":false},{"type":"event","name":"GovernanceEnabledUpdated","inputs":[{"name":"enabled","type":"bool","indexed":true,"internalType":"bool"}],"anonymous":false},{"type":"event","name":"ParameterUpdatedByGovernance","inputs":[{"name":"paramId","type":"bytes32","indexed":true,"internalType":"bytes32"},{"name":"oldValue","type":"uint256","indexed":false,"internalType":"uint256"},{"name":"newValue","type":"uint256","indexed":false,"internalType":"uint256"}],"anonymous":false},{"type":"event","name":"Paused","inputs":[{"name":"account","type":"address","indexed":false,"internalType":"address"}],"anonymous":false},{"type":"event","name":"ReputationBoundsUpdated","inputs":[{"name":"minScore","type":"uint256","indexed":false,"internalType":"uint256"},{"name":"maxScore","type":"uint256","indexed":false,"internalType":"uint256"}],"anonymous":false},{"type":"event","name":"ReputationOracleUpdated","inputs":[{"name":"oldOracle","type":"address","indexed":true,"internalType":"address"},{"name":"newOracle","type":"address","indexed":true,"internalType":"address"}],"anonymous":false},{"type":"event","name":"RewardsDistributed","inputs":[{"name":"claimId","type":"uint256","indexed":true,"internalType":"uint256"},{"name":"verifier","type":"address","indexed":true,"internalType":"address"},{"name":"amount","type":"uint256","indexed":false,"internalType":"uint256"}],"anonymous":false},{"type":"event","name":"RoleAdminChanged","inputs":[{"name":"role","type":"bytes32","indexed":true,"internalType":"bytes32"},{"name":"previousAdminRole","type":"bytes32","indexed":true,"internalType":"bytes32"},{"name":"newAdminRole","type":"bytes32","indexed":true,"internalType":"bytes32"}],"anonymous":false},{"type":"event","name":"RoleGranted","inputs":[{"name":"role","type":"bytes32","indexed":true,"internalType":"bytes32"},{"name":"account","type":"address","indexed":true,"internalType":"address"},{"name":"sender","type":"address","indexed":true,"internalType":"address"}],"anonymous":false},{"type":"event","name":"RoleRevoked","inputs":[{"name":"role","type":"bytes32","indexed":true,"internalType":"bytes32"},{"name":"account","type":"address","indexed":true,"internalType":"address"},{"name":"sender","type":"address","indexed":true,"internalType":"address"}],"anonymous":false},{"type":"event","name":"StakeDeposited","inputs":[{"name":"verifier","type":"address","indexed":true,"internalType":"address"},{"name":"amount","type":"uint256","indexed":false,"internalType":"uint256"}],"anonymous":false},{"type":"event","name":"StakeSlashed","inputs":[{"name":"claimId","type":"uint256","indexed":true,"internalType":"uint256"},{"name":"verifier","type":"address","indexed":true,"internalType":"address"},{"name":"amount","type":"uint256","indexed":false,"internalType":"uint256"}],"anonymous":false},{"type":"event","name":"StakeWithdrawn","inputs":[{"name":"verifier","type":"address","indexed":true,"internalType":"address"},{"name":"amount","type":"uint256","indexed":false,"internalType":"uint256"}],"anonymous":false},{"type":"event","name":"Unpaused","inputs":[{"name":"account","type":"address","indexed":false,"internalType":"address"}],"anonymous":false},{"type":"event","name":"VoteCast","inputs":[{"name":"claimId","type":"uint256","indexed":true,"internalType":"uint256"},{"name":"verifier","type":"address","indexed":true,"internalType":"address"},{"name":"support","type":"bool","indexed":false,"internalType":"bool"},{"name":"rawStake","type":"uint256","indexed":false,"internalType":"uint256"},{"name":"effectiveStake","type":"uint256","indexed":false,"internalType":"uint256"},{"name":"reputationScore","type":"uint256","indexed":false,"internalType":"uint256"}],"anonymous":false},{"type":"event","name":"WeightedStakingToggled","inputs":[{"name":"enabled","type":"bool","indexed":false,"internalType":"bool"}],"anonymous":false},{"type":"error","name":"AccessControlBadConfirmation","inputs":[]},{"type":"error","name":"AccessControlUnauthorizedAccount","inputs":[{"name":"account","type":"address","internalType":"address"},{"name":"neededRole","type":"bytes32","internalType":"bytes32"}]},{"type":"error","name":"EnforcedPause","inputs":[]},{"type":"error","name":"ExpectedPause","inputs":[]},{"type":"error","name":"GovernanceDisabled","inputs":[]},{"type":"error","name":"InvalidReputationBounds","inputs":[]},{"type":"error","name":"InvalidReputationOracle","inputs":[]},{"type":"error","name":"ReentrancyGuardReentrantCall","inputs":[]},{"type":"error","name":"UnauthorizedGovernance","inputs":[]},{"type":"error","name":"ZeroAddress","inputs":[]}],"bytecode":{"object":"0x60806040526001805460ff60a81b1916600160a81b17905562093a80600555610e10600655610037670de0b6b3a764000060646104c3565b600755603c60085560506009556014600a55600a670de0b6b3a764000061005e91906104e6565b600b55610074670de0b6b3a7640000600a6104c3565b600c55670de0b6b3a7640000600d55600e805460ff1916600117905534801561009b575f5ffd5b506040516146053803806146058339810160408190526100ba91610520565b60017f9b779b17422d0df92223018b32b4d1fa46e071723d6817e2486d003becc55f00556001600160a01b0384166101395760405162461bcd60e51b815260206004820152601560248201527f496e76616c696420746f6b656e2061646472657373000000000000000000000060448201526064015b60405180910390fd5b6001600160a01b03831661018f5760405162461bcd60e51b815260206004820152601660248201527f496e76616c6964206f7261636c652061646472657373000000000000000000006044820152606401610130565b6001600160a01b0382166101e55760405162461bcd60e51b815260206004820152601560248201527f496e76616c69642061646d696e206164647265737300000000000000000000006044820152606401610130565b600380546001600160a01b038087166001600160a01b031992831617909255600480549286169290911691909117905561021f5f836102f6565b506102375f5160206145e55f395f51905f52836102f6565b5061024f5f5160206145c55f395f51905f52836102f6565b506102877f92a19c77d2ea87c7f81d50c74403cb2f401780f3ad919571121efe2bdb427eb15f5160206145e55f395f51905f5261039f565b6102be7fe1dcbdb91df27212a29bc27177c840cf2f819ecf2187432e1fac86c2dd5dfca95f5160206145e55f395f51905f5261039f565b6102e25f5160206145c55f395f51905f525f5160206145e55f395f51905f5261039f565b6102ed8183806103e9565b50505050610571565b5f828152602081815260408083206001600160a01b038516845290915281205460ff16610396575f838152602081815260408083206001600160a01b03861684529091529020805460ff1916600117905561034e3390565b6001600160a01b0316826001600160a01b0316847f2f8788117e7eff1d82e926ec794901d17c78024a50270940304540a733656f0d60405160405180910390a4506001610399565b505f5b92915050565b5f82815260208190526040808220600101805490849055905190918391839186917fbd79b86ffe0ab8e8776151514217cd7cacd52c909f66475c3af44e129f0b00ff9190a4505050565b6001600160a01b0382166104105760405163d92e233d60e01b815260040160405180910390fd5b60018054610100600160a81b0319166101006001600160a01b038681169190910291909117909155600280546001600160a01b0319169183169190911790556104595f836102f6565b506104715f5160206145a55f395f51905f52836102f6565b506001600160a01b0383161561049a576104985f5160206145855f395f51905f52846102f6565b505b6104be5f5160206145855f395f51905f525f5160206145a55f395f51905f5261039f565b505050565b808202811582820484141761039957634e487b7160e01b5f52601160045260245ffd5b5f8261050057634e487b7160e01b5f52601260045260245ffd5b500490565b80516001600160a01b038116811461051b575f5ffd5b919050565b5f5f5f5f60808587031215610533575f5ffd5b61053c85610505565b935061054a60208601610505565b925061055860408601610505565b915061056660608601610505565b905092959194509250565b6140078061057e5f395ff3fe608060405234801561000f575f5ffd5b50600436106104c7575f3560e01c80638591567111610279578063ccfb077511610156578063e406f1d8116100ca578063f18876841161008f578063f188768414610d16578063f36c8f5c14610d1f578063f794ecc614610d33578063fad844c114610d3b578063fefeffcb14610d4e578063ff12cb7414610d75575f5ffd5b8063e406f1d814610cb6578063e63ab1e914610cc9578063eb4af04514610cf0578063ec6c18fc146106bb578063f017960114610d03575f5ffd5b8063d23254b41161011b578063d23254b414610bad578063d37f7a0614610c4d578063d46a5d7e14610c56578063d547741f14610c69578063d6da2cf714610c7c578063e0ca118414610c8f575f5ffd5b8063ccfb077514610b44578063ce2661f114610b57578063d030205114610b6a578063d11a57ec14610b73578063d19cfdac14610b9a575f5ffd5b8063a84195ea116101ed578063bc3f931f116101b2578063bc3f931f14610a17578063bd6dd26e14610b05578063bdb3c7f614610b0d578063c1c5dd2714610b16578063c2b0889014610b29578063c77943c014610b3c575f5ffd5b8063a84195ea146109b9578063a888c2cd146109d1578063abf02dfe146109f9578063ad79715814610a01578063aed29d0714610a0e575f5ffd5b80639e54d8c41161023e5780639e54d8c4146109845780639e6c29591461098e578063a201bbdd14610996578063a217fddf1461099f578063a2b44393146106bb578063a694fc3a146109a6575f5ffd5b806385915671146108bd5780638e9a4b4c1461094257806391d1485414610955578063947ec0e01461096857806397f2d3e114610971575f5ffd5b80634efa8f17116103a757806375b238fc1161031b5780638244a517116102e05780638244a5171461083857806382d9d6e71461084157806383aa15b614610868578063841529061461088f5780638456cb59146108a257806384c08ed3146108aa575f5ffd5b806375b238fc146107ba57806375feeb73146107ce57806377fb8d7a146107e157806378fab2601461080857806380de7f911461082f575f5ffd5b80635c975abb1161036c5780635c975abb146107455780636343b15f14610750578063645d2c41146107595780636e532d061461076c57806370905dce1461079457806375a7d098146107a7575f5ffd5b80634efa8f17146106da57806351858e27146106e3578063550b2595146106eb57806357a25803146107125780635aef244714610725575f5ffd5b80632f2ff15d1161043e57806339260e361161040357806339260e36146106825780633e8bf4aa146106a95780633f4ba83a146106b35780633fad8004146106bb57806345113548146106ca5780634a4e3bd5146106d2575f5ffd5b80632f2ff15d1461062d57806335da33941461064057806336568abe1461065357806337d1cc8d14610666578063389bea4d14610679575f5ffd5b80631084e0661161048f5780631084e06614610567578063139ae68b1461056f5780631956f01b146105b8578063248a9ca3146105cd57806325d5971f146105ef5780632d4147e314610602575f5ffd5b806301ffc9a7146104cb57806303b82d3c146104f357806304c24dbb146105145780630b3978fc1461051e5780630fa137f414610532575b5f5ffd5b6104de6104d93660046138aa565b610d7c565b60405190151581526020015b60405180910390f35b6105066105013660046138f5565b610db2565b6040519081526020016104ea565b61050662278d0081565b6001546104de90600160a81b900460ff1681565b610545610540366004613926565b610ebe565b60408051825181526020808401519082015291810151908201526060016104ea565b610506601481565b61059d61057d366004613926565b60126020525f908152604090208054600182015460029092015490919083565b604080519384526020840192909252908201526060016104ea565b6105cb6105c636600461394c565b610f20565b005b6105066105db366004613967565b5f9081526020819052604090206001015490565b6105cb6105fd366004613967565b610f7f565b600354610615906001600160a01b031681565b6040516001600160a01b0390911681526020016104ea565b6105cb61063b36600461397e565b6111e6565b6105cb61064e366004613926565b611210565b6105cb61066136600461397e565b611293565b6105cb610674366004613967565b6112cb565b610506600d5481565b6105067f15d68302491e4db51ed415aab114a2a9a6e7c7cc6ad7ee44eaf9b0504a3966c681565b6105066201518081565b6105cb6115d3565b610506670de0b6b3a764000081565b610506611605565b6105cb61161b565b61050660145481565b6105cb611680565b6105067f40d8bfdf1085b28330a6753bdac4a0b338fcaef883a9b001eeae9ef9c4344ab381565b61050661072036600461399f565b6116e3565b610738610733366004613967565b6117a8565b6040516104ea91906139f5565b60015460ff166104de565b610506600a5481565b6105cb610767366004613967565b61190c565b61077f61077a366004613a8c565b611a0f565b604080519283526020830191909152016104ea565b600254610615906001600160a01b031681565b6105cb6107b5366004613967565b611a2f565b6105065f516020613fb25f395f51905f5281565b6105cb6107dc366004613926565b611b31565b6105067fe7e0b301de1c1e268073a6b56ff0876cffca0becba0dca08f945c1394e3e972781565b6105067f92a19c77d2ea87c7f81d50c74403cb2f401780f3ad919571121efe2bdb427eb181565b61050660065481565b61050660085481565b6105067f0b702e9ee16b785379e8bf860894ce33331f02aed2185a61adb51746a8a6f0ae81565b6105067ffc730eaab7fd4dfcf32eb626fe0d572338ee16fd74995c77d66320f34c6df2d481565b6105cb61089d366004613926565b611c3b565b6105cb611cfe565b6105066108b8366004613aba565b611d30565b61090b6108cb366004613967565b60106020525f9081526040902080546001820154600283015460038401546004850154600586015460069096015460ff9095169593949293919290919087565b6040805197151588526020880196909652948601939093526060850191909152608084015260a083015260c082015260e0016104ea565b6105cb610950366004613967565b611e82565b6104de61096336600461397e565b611f7f565b610506600c5481565b6105cb61097f366004613967565b611fa7565b61050662093a8081565b610506606481565b61050660155481565b6105065f81565b6105cb6109b4366004613967565b6120a8565b6001546106159061010090046001600160a01b031681565b6109e46109df366004613967565b612224565b6040516104ea99989796959493929190613b6d565b610506603c81565b600e546104de9060ff1681565b61050660165481565b610af8610a2536600461397e565b60408051610100810182525f80825260208201819052918101829052606081018290526080810182905260a0810182905260c0810182905260e0810191909152505f8281526011602090815260408083206001600160a01b038516845282529182902082516101008082018552825460ff8082161515845290829004811615159483019490945260018301549482019490945260028201546060820152600382015460808201526004820154808416151560a083015293909304909116151560c08301526005015460e082015292915050565b6040516104ea9190613bcb565b610506605081565b610506600b5481565b6105cb610b24366004613967565b612301565b6105cb610b37366004613c31565b6123fc565b610506612486565b6105cb610b52366004613967565b612499565b6105cb610b6536600461394c565b612920565b61050660095481565b6105067fe1dcbdb91df27212a29bc27177c840cf2f819ecf2187432e1fac86c2dd5dfca981565b6105cb610ba8366004613926565b612973565b610c0c610bbb36600461397e565b601160209081525f928352604080842090915290825290208054600182015460028301546003840154600485015460059095015460ff80861696610100968790048216968183169391049091169088565b60408051981515895296151560208901529587019490945260608601929092526080850152151560a0840152151560c083015260e0820152610100016104ea565b61050660055481565b6105cb610c64366004613c51565b612a03565b6105cb610c7736600461397e565b612e75565b6105cb610c8a366004613967565b612e99565b6105067f940039135186f9eba0a670a2033b1c3bdc118074ba58bda087df1ec87e8e00c281565b6105cb610cc4366004613967565b612ef7565b6105067f65d7a28e3265b37a6474929f336521b332c1681b933f6cb9f3376673440d862a81565b6105cb610cfe366004613967565b6130db565b6104de610d11366004613926565b6131c8565b61050660075481565b6105065f516020613f525f395f51905f5281565b61050661320b565b600454610615906001600160a01b031681565b6105067f907134a3d36001426d877b7e39fadc871ef6218acf943ed95e5a58e44472ec3e81565b6001610506565b5f6001600160e01b03198216637965db0b60e01b1480610dac57506301ffc9a760e01b6001600160e01b03198316145b92915050565b5f610dca5f516020613f525f395f51905f5233611f7f565b158015610dde5750610ddc5f33611f7f565b155b8015610df557506002546001600160a01b03163314155b15610e135760405163e653962160e01b815260040160405180910390fd5b60015461010090046001600160a01b0316610e415760405163d92e233d60e01b815260040160405180910390fd5b60015460405163e2f4f82360e01b81526101009091046001600160a01b03169063e2f4f82390610e779086908690600401613ca6565b6020604051808303815f875af1158015610e93573d5f5f3e3d5ffd5b505050506040513d601f19601f82011682018060405250810190610eb79190613ccc565b9392505050565b610edf60405180606001604052805f81526020015f81526020015f81525090565b506001600160a01b03165f90815260126020908152604091829020825160608101845281548152600182015492810192909252600201549181019190915290565b5f516020613fb25f395f51905f52610f378161321e565b600e805460ff19168315159081179091556040519081527fc174868e01e9d4ef87f5038e9e19c12c38b8771d521e328b802429222b44fcb59060200160405180910390a15050565b610f87613228565b610f8f613243565b335f9081526012602052604090206001810154610fad908390613cf7565b815410156110025760405162461bcd60e51b815260206004820152601c60248201527f496e73756666696369656e7420617661696c61626c65207374616b650000000060448201526064015b60405180910390fd5b80600201545f036110765742600282015560405162461bcd60e51b815260206004820152603260248201527f5769746864726177616c20696e697469617465642e20506c65617365207761696044820152713a1019103230bcb99031b7b7b63237bbb71760711b6064820152608401610ff9565b6002810154611088906202a300613cf7565b4210156110c95760405162461bcd60e51b815260206004820152600f60248201526e436f6f6c646f776e2061637469766560881b6044820152606401610ff9565b5f600282018190558154839183916110e2908490613d0a565b909155505060035460405163a9059cbb60e01b8152336004820152602481018490526001600160a01b039091169063a9059cbb906044016020604051808303815f875af1158015611135573d5f5f3e3d5ffd5b505050506040513d601f19601f820116820180604052508101906111599190613d1d565b6111975760405162461bcd60e51b815260206004820152600f60248201526e151c985b9cd9995c8819985a5b1959608a1b6044820152606401610ff9565b60405182815233907f8108595eb6bad3acefa9da467d90cc2217686d5c5ac85460f8b7849c840645fc9060200160405180910390a2506111e360015f516020613f925f395f51905f5255565b50565b5f828152602081905260409020600101546112008161321e565b61120a8383613267565b50505050565b5f61121a8161321e565b6001600160a01b0382166112415760405163d92e233d60e01b815260040160405180910390fd5b600280546001600160a01b038481166001600160a01b0319831681179093556040519116919082907fd33e3f943e596f2b7b99ed1a5330e4ff9e1a603b1c0bf9866f8c83e8ddb065f2905f90a3505050565b6001600160a01b03811633146112bc5760405163334bd91960e11b815260040160405180910390fd5b6112c682826132f6565b505050565b6112d3613228565b5f818152600f6020526040902060018101546001600160a01b031661130a5760405162461bcd60e51b8152600401610ff990613d38565b600581015460ff166113525760405162461bcd60e51b815260206004820152601160248201527010db185a5b481b9bdd081cd95d1d1b1959607a1b6044820152606401610ff9565b5f8281526011602090815260408083203384529091529020805460ff166113aa5760405162461bcd60e51b815260206004820152600c60248201526b139bc81d9bdd194818d85cdd60a21b6044820152606401610ff9565b6004810154610100900460ff16156113fd5760405162461bcd60e51b815260206004820152601660248201527514dd185ad948185b1c9958591e481c995d1d5c9b995960521b6044820152606401610ff9565b5f838152601060205260408120805483546005850154929360ff92831615156101009092049290921615151491821561143c5784600101549150611493565b80856001015461144c9190613d0a565b9150336001600160a01b0316877fba00be99b4ba100b19f2c080160ab22c2b8f4d62027d6524c532e7578d7a43b48360405161148a91815260200190565b60405180910390a35b60048501805461ff001916610100179055600185810154335f9081526012602052604081209092018054919290916114cc908490613d0a565b909155508390506114fb57335f90815260126020526040812080548392906114f5908490613d0a565b90915550505b81156115b75760035460405163a9059cbb60e01b8152336004820152602481018490526001600160a01b039091169063a9059cbb906044016020604051808303815f875af115801561154f573d5f5f3e3d5ffd5b505050506040513d601f19601f820116820180604052508101906115739190613d1d565b6115b75760405162461bcd60e51b815260206004820152601560248201527414dd185ad9481d1c985b9cd9995c8819985a5b1959605a1b6044820152606401610ff9565b5050505050506111e360015f516020613f925f395f51905f5255565b7f65d7a28e3265b37a6474929f336521b332c1681b933f6cb9f3376673440d862a6115fd8161321e565b6111e361335f565b611618670de0b6b3a7640000600a613d66565b81565b6002546001600160a01b031633148061163957506116395f33611f7f565b6116765760405162461bcd60e51b815260206004820152600e60248201526d139bdd08185d5d1a1bdc9a5e995960921b6044820152606401610ff9565b61167e61335f565b565b6002546001600160a01b031633148061169e575061169e5f33611f7f565b6116db5760405162461bcd60e51b815260206004820152600e60248201526d139bdd08185d5d1a1bdc9a5e995960921b6044820152606401610ff9565b61167e6133b1565b5f6116fb5f516020613f525f395f51905f5233611f7f565b15801561170f575061170d5f33611f7f565b155b801561172657506002546001600160a01b03163314155b156117445760405163e653962160e01b815260040160405180910390fd5b60015461010090046001600160a01b03166117725760405163d92e233d60e01b815260040160405180910390fd5b600154604051638d34372b60e01b81526101009091046001600160a01b031690638d34372b90610e779086908690600401613d7d565b6117fa6040518061012001604052805f81526020015f6001600160a01b03168152602001606081526020015f81526020015f81526020015f151581526020015f81526020015f81526020015f81525090565b5f828152600f60209081526040918290208251610120810184528154815260018201546001600160a01b031692810192909252600281018054929391929184019161184490613d98565b80601f016020809104026020016040519081016040528092919081815260200182805461187090613d98565b80156118bb5780601f10611892576101008083540402835291602001916118bb565b820191905f5260205f20905b81548152906001019060200180831161189e57829003601f168201915b50505091835250506003820154602082015260048201546040820152600582015460ff161515606082015260068201546080820152600782015460a082015260089091015460c09091015292915050565b6119235f516020613f525f395f51905f5233611f7f565b15801561193757506119355f33611f7f565b155b801561194e57506002546001600160a01b03163314155b1561196c5760405163e653962160e01b815260040160405180910390fd5b5f8111801561197c575060648111155b6119ba5760405162461bcd60e51b815260206004820152600f60248201526e125b9d985b1a59081c195c98d95b9d608a1b6044820152606401610ff9565b600a80549082905560408051828152602081018490527f907134a3d36001426d877b7e39fadc871ef6218acf943ed95e5a58e44472ec3e915f516020613f725f395f51905f5291015b60405180910390a25050565b5f5f611a1a846133ec565b9050611a268382613514565b91509250929050565b611a465f516020613f525f395f51905f5233611f7f565b158015611a5a5750611a585f33611f7f565b155b8015611a7157506002546001600160a01b03163314155b15611a8f5760405163e653962160e01b815260040160405180910390fd5b620151808110158015611aa5575062278d008111155b611ae45760405162461bcd60e51b815260206004820152601060248201526f24b73b30b634b210323ab930ba34b7b760811b6044820152606401610ff9565b600580549082905560408051828152602081018490527f940039135186f9eba0a670a2033b1c3bdc118074ba58bda087df1ec87e8e00c2915f516020613f725f395f51905f529101611a03565b611b3b5f33611f7f565b611b765760405162461bcd60e51b815260206004820152600c60248201526b155b985d5d1a1bdc9a5e995960a21b6044820152606401610ff9565b6001600160a01b038116611bc45760405162461bcd60e51b8152602060048201526015602482015274496e76616c696420746f6b656e206164647265737360581b6044820152606401610ff9565b6003546001600160a01b0390811690821603611c195760405162461bcd60e51b8152602060048201526014602482015273546f6b656e20616c72656164792061637469766560601b6044820152606401610ff9565b600380546001600160a01b0319166001600160a01b0392909216919091179055565b5f611c458161321e565b60015461010090046001600160a01b03168015611c7557611c735f516020613f525f395f51905f52826132f6565b505b60018054610100600160a81b0319166101006001600160a01b0386169081029190911790915515611cb957611cb75f516020613f525f395f51905f5284613267565b505b826001600160a01b0316816001600160a01b03167f3b4545e5eddeaf93078116be9179dee76a26c4b60d502de3a660ba7f1277f65c60405160405180910390a3505050565b7f65d7a28e3265b37a6474929f336521b332c1681b933f6cb9f3376673440d862a611d288161321e565b6111e36133b1565b5f611d39613243565b601480545f9182611d4983613dd0565b9190505590505f60055442611d5e9190613cf7565b6040805161012081018252848152336020808301918252828401898152426060850152608084018690525f60a0850181905260c0850181905260e085018190526101008501819052888152600f9092529390208251815590516001820180546001600160a01b0319166001600160a01b039092169190911790559151929350916002820190611ded9082613e3e565b50606082015160038201556080820151600482015560a082015160058201805460ff191691151591909117905560c0820151600682015560e0820151600782015561010090910151600890910155604051339083907f8fe7139c7f2efce7b3da26b25a3ec60b52665d26d50c52ba8cf039f8e9e14a4490611e719088908690613efd565b60405180910390a35090505b919050565b611e995f516020613f525f395f51905f5233611f7f565b158015611ead5750611eab5f33611f7f565b155b8015611ec457506002546001600160a01b03163314155b15611ee25760405163e653962160e01b815260040160405180910390fd5b5f81118015611ef2575060648111155b611f325760405162461bcd60e51b8152602060048201526011602482015270125b9d985b1a59081d1a1c995cda1bdb19607a1b6044820152606401610ff9565b600880549082905560408051828152602081018490527f0b702e9ee16b785379e8bf860894ce33331f02aed2185a61adb51746a8a6f0ae915f516020613f725f395f51905f529101611a03565b5f918252602082815260408084206001600160a01b0393909316845291905290205460ff1690565b611fbe5f516020613f525f395f51905f5233611f7f565b158015611fd25750611fd05f33611f7f565b155b8015611fe957506002546001600160a01b03163314155b156120075760405163e653962160e01b815260040160405180910390fd5b61012c811015801561201c575062093a808111155b61205b5760405162461bcd60e51b815260206004820152601060248201526f24b73b30b634b210323ab930ba34b7b760811b6044820152606401610ff9565b600680549082905560408051828152602081018490527ffc730eaab7fd4dfcf32eb626fe0d572338ee16fd74995c77d66320f34c6df2d4915f516020613f725f395f51905f529101611a03565b6120b0613228565b6120b8613243565b6007548110156121005760405162461bcd60e51b81526020600482015260136024820152725374616b652062656c6f77206d696e696d756d60681b6044820152606401610ff9565b6003546040516323b872dd60e01b8152336004820152306024820152604481018390526001600160a01b03909116906323b872dd906064016020604051808303815f875af1158015612154573d5f5f3e3d5ffd5b505050506040513d601f19601f820116820180604052508101906121789190613d1d565b6121b65760405162461bcd60e51b815260206004820152600f60248201526e151c985b9cd9995c8819985a5b1959608a1b6044820152606401610ff9565b335f90815260126020526040812080548392906121d4908490613cf7565b909155505060405181815233907f0a7bb2e28cc4698aac06db79cf9163bfcc20719286cf59fa7d492ceda1b8edc29060200160405180910390a26111e360015f516020613f925f395f51905f5255565b600f6020525f908152604090208054600182015460028301805492936001600160a01b039092169261225590613d98565b80601f016020809104026020016040519081016040528092919081815260200182805461228190613d98565b80156122cc5780601f106122a3576101008083540402835291602001916122cc565b820191905f5260205f20905b8154815290600101906020018083116122af57829003601f168201915b505050600384015460048501546005860154600687015460078801546008909801549697939692955060ff9091169350919089565b6123185f516020613f525f395f51905f5233611f7f565b15801561232c575061232a5f33611f7f565b155b801561234357506002546001600160a01b03163314155b156123615760405163e653962160e01b815260040160405180910390fd5b5f81118015612371575060648111155b6123af5760405162461bcd60e51b815260206004820152600f60248201526e125b9d985b1a59081c195c98d95b9d608a1b6044820152606401610ff9565b600980549082905560408051828152602081018490527f15d68302491e4db51ed415aab114a2a9a6e7c7cc6ad7ee44eaf9b0504a3966c6915f516020613f725f395f51905f529101611a03565b5f516020613fb25f395f51905f526124138161321e565b8215806124205750818310155b1561243e5760405163427fa00f60e01b815260040160405180910390fd5b600b839055600c82905560408051848152602081018490527f32fc046ecb6d2d261ca468e1c5a649ac4ad9e7c5bd0f27cd4df996060f9290be910160405180910390a1505050565b611618600a670de0b6b3a7640000613f1e565b6124a1613228565b6124a9613243565b5f818152600f6020526040902060018101546001600160a01b03166124e05760405162461bcd60e51b8152600401610ff990613d38565b600581015460ff166125285760405162461bcd60e51b815260206004820152601160248201527010db185a5b481b9bdd081cd95d1d1b1959607a1b6044820152606401610ff9565b5f8281526011602090815260408083203384529091529020805460ff166125805760405162461bcd60e51b815260206004820152600c60248201526b139bc81d9bdd194818d85cdd60a21b6044820152606401610ff9565b600481015460ff16156125d55760405162461bcd60e51b815260206004820152601760248201527f5265776172647320616c726561647920636c61696d65640000000000000000006044820152606401610ff9565b5f83815260106020526040902060038101546126205760405162461bcd60e51b815260206004820152600a6024820152694e6f2077696e6e65727360b01b6044820152606401610ff9565b80548254610100900460ff90811615159116151514806126715760405162461bcd60e51b815260206004820152600c60248201526b2737ba1030903bb4b73732b960a11b6044820152606401610ff9565b5f8360020154836005015f8282546126899190613cf7565b909155505060038301546005840154036126b857826006015483600101546126b19190613d0a565b90506126de565b8260030154836001015485600201546126d19190613d66565b6126db9190613f1e565b90505b80836006015f8282546126f19190613cf7565b909155505060048401805460ff1916600117905580156127fa5760035460405163a9059cbb60e01b8152336004820152602481018390526001600160a01b039091169063a9059cbb906044016020604051808303815f875af1158015612759573d5f5f3e3d5ffd5b505050506040513d601f19601f8201168201806040525081019061277d9190613d1d565b6127c25760405162461bcd60e51b815260206004820152601660248201527514995dd85c99081d1c985b9cd9995c8819985a5b195960521b6044820152606401610ff9565b604051818152339087907f4cbfa67f54cf0255619787991cb52aa46c0d3ee5cfabb0abf659f2b310f474859060200160405180910390a35b6004840154610100900460ff166129055760048401805461ff001916610100179055600184810154335f908152601260205260408120909201805491929091612844908490613d0a565b9091555050600354600185015460405163a9059cbb60e01b815233600482015260248101919091526001600160a01b039091169063a9059cbb906044016020604051808303815f875af115801561289d573d5f5f3e3d5ffd5b505050506040513d601f19601f820116820180604052508101906128c19190613d1d565b6129055760405162461bcd60e51b815260206004820152601560248201527414dd185ad9481d1c985b9cd9995c8819985a5b1959605a1b6044820152606401610ff9565b50505050506111e360015f516020613f925f395f51905f5255565b5f61292a8161321e565b6001805460ff60a81b1916600160a81b841515908102919091179091556040517f920f1adeb0f6efa8584984bf3cb6461ecd85827e6b18b4d99d74840b21a005b5905f90a25050565b5f516020613fb25f395f51905f5261298a8161321e565b6001600160a01b0382166129b1576040516329c711a360e21b815260040160405180910390fd5b600480546001600160a01b038481166001600160a01b0319831681179093556040519116919082907f5b367b86f486a97bb7ae5ed7a92fc670d58bf46c7643345eda46ffa3d0ec6fa4905f90a3505050565b612a0b613228565b612a13613243565b5f838152600f6020526040902060018101546001600160a01b0316612a4a5760405162461bcd60e51b8152600401610ff990613d38565b80600401544210612a9d5760405162461bcd60e51b815260206004820152601a60248201527f566572696669636174696f6e2077696e646f7720636c6f7365640000000000006044820152606401610ff9565b600581015460ff1615612aea5760405162461bcd60e51b815260206004820152601560248201527410db185a5b48185b1c9958591e481cd95d1d1b1959605a1b6044820152606401610ff9565b5f84815260116020908152604080832033845290915290205460ff1615612b435760405162461bcd60e51b815260206004820152600d60248201526c105b1c9958591e481d9bdd1959609a1b6044820152606401610ff9565b600754821015612b8b5760405162461bcd60e51b81526020600482015260136024820152725374616b652062656c6f77206d696e696d756d60681b6044820152606401610ff9565b335f90815260126020526040902060010154612ba8908390613cf7565b335f908152601260205260409020541015612c055760405162461bcd60e51b815260206004820152601c60248201527f496e73756666696369656e7420617661696c61626c65207374616b65000000006044820152606401610ff9565b5f612c0f336133ec565b90505f612c1c8483613514565b335f90815260126020526040812060010180549293508692909190612c42908490613cf7565b9250508190555060405180610100016040528060011515815260200186151581526020018581526020018281526020018381526020015f151581526020015f151581526020015f81525060115f8881526020019081526020015f205f336001600160a01b03166001600160a01b031681526020019081526020015f205f820151815f015f6101000a81548160ff0219169083151502179055506020820151815f0160016101000a81548160ff02191690831515021790555060408201518160010155606082015181600201556080820151816003015560a0820151816004015f6101000a81548160ff02191690831515021790555060c08201518160040160016101000a81548160ff02191690831515021790555060e0820151816005015590505060135f8781526020019081526020015f2033908060018154018082558091505060019003905f5260205f20015f9091909190916101000a8154816001600160a01b0302191690836001600160a01b031602179055508415612ddd5780836006015f828254612dd29190613cf7565b90915550612df69050565b80836007015f828254612df09190613cf7565b90915550505b83836008015f828254612e099190613cf7565b90915550506040805186151581526020810186905290810182905260608101839052339087907f6f6f95f30a8e58dcbd04046390ab11f621176801303e8fd816ddb1002c0004d99060800160405180910390a35050506112c660015f516020613f925f395f51905f5255565b5f82815260208190526040902060010154612e8f8161321e565b61120a83836132f6565b5f516020613fb25f395f51905f52612eb08161321e565b5f8211612ef15760405162461bcd60e51b815260206004820152600f60248201526e125b9d985b1a5908191959985d5b1d608a1b6044820152606401610ff9565b50600d55565b612eff613228565b612f07613243565b5f818152600f6020526040902060018101546001600160a01b0316612f3e5760405162461bcd60e51b8152600401610ff990613d38565b6006548160040154612f509190613cf7565b421015612f9f5760405162461bcd60e51b815260206004820152601a60248201527f436f6e6669726d6174696f6e2064656c61792070656e64696e670000000000006044820152606401610ff9565b600581015460ff1615612fec5760405162461bcd60e51b815260206004820152601560248201527410db185a5b48185b1c9958591e481cd95d1d1b1959605a1b6044820152606401610ff9565b5f81600801541161302f5760405162461bcd60e51b815260206004820152600d60248201526c139bc81d9bdd195cc818d85cdd609a1b6044820152606401610ff9565b60058101805460ff19166001179055600681015460078201545f9161305391613532565b90505f5f6130618584613575565b6006860154600787015460408051881515815260208101939093528201526060810183905260808101829052919350915085907f447c31d40d3af2e96c361a35f666c7c309e1b413bfab6314f99f5d76b4b59e6a9060a00160405180910390a2505050506111e360015f516020613f925f395f51905f5255565b6130f25f516020613f525f395f51905f5233611f7f565b15801561310657506131045f33611f7f565b155b801561311d57506002546001600160a01b03163314155b1561313b5760405163e653962160e01b815260040160405180910390fd5b5f811161317b5760405162461bcd60e51b815260206004820152600e60248201526d125b9d985b1a5908185b5bdd5b9d60921b6044820152606401610ff9565b600780549082905560408051828152602081018490527f40d8bfdf1085b28330a6753bdac4a0b338fcaef883a9b001eeae9ef9c4344ab3915f516020613f725f395f51905f529101611a03565b5f6131e05f516020613f525f395f51905f5283611f7f565b806131f057506131f05f83611f7f565b80610dac5750506002546001600160a01b0390811691161490565b611618670de0b6b3a76400006064613d66565b6111e381336136b7565b6132306136f4565b60025f516020613f925f395f51905f5255565b60015460ff161561167e5760405163d93c066560e01b815260040160405180910390fd5b5f6132728383611f7f565b6132ef575f838152602081815260408083206001600160a01b03861684529091529020805460ff191660011790556132a73390565b6001600160a01b0316826001600160a01b0316847f2f8788117e7eff1d82e926ec794901d17c78024a50270940304540a733656f0d60405160405180910390a4506001610dac565b505f610dac565b5f6133018383611f7f565b156132ef575f838152602081815260408083206001600160a01b0386168085529252808320805460ff1916905551339286917ff6391f5c32d9c69d2a47ea670b442974b53935d1edc7fd64eb21e047a839171b9190a4506001610dac565b613367613723565b6001805460ff191690557f5db9ee0a495bf2e6ff9c91a7834c1ba4fdd244a5e8aa4e537bd38aeae4b073aa335b6040516001600160a01b03909116815260200160405180910390a1565b6133b9613243565b6001805460ff1916811790557f62e78cea01bee320cd4e420270b5ea74000d11b0c9f74754ebdbfc544b05a25833613394565b600e545f9060ff166134075750670de0b6b3a7640000919050565b60048054604080516308bcf8b560e21b815290516001600160a01b03909216926322f3e2d49282820192602092908290030181865afa92505050801561346a575060408051601f3d908101601f1916820190925261346791810190613d1d565b60015b613476575050600d5490565b80613485575050600d54919050565b5060048054604051631d699f5760e21b81526001600160a01b03858116938201939093529116906375a67d5c90602401602060405180830381865afa9250505080156134ee575060408051601f3d908101601f191682019092526134eb91810190613ccc565b60015b6134fa575050600d5490565b805f0361350b575050600d54919050565b610eb781613746565b5f670de0b6b3a76400006135288385613d66565b610eb79190613f1e565b5f8061353e8385613cf7565b9050805f03613550575f915050610dac565b5f8161355d606487613d66565b6135679190613f1e565b600854111595945050505050565b5f828152600f602052604081208190818461359457816007015461359a565b81600601545b90505f856135ac5782600601546135b2565b82600701545b90505f6135bf888861376f565b90506064600a54826135d19190613d66565b6135db9190613f1e565b94506135e788886137e2565b94506064600954866135f99190613d66565b6136039190613f1e565b95508460155f8282546136169190613cf7565b925050819055508560165f82825461362e9190613cf7565b90915550506040805160e0810182529715158852602080890188815289830188815260608b0196875260808b019586525f60a08c0181815260c08d018281529d825260109094529390932099518a5460ff1916901515178a555160018a015590516002890155925160038801555051600486015551600585015550925160069092019190915591565b6136c18282611f7f565b6136f05760405163e2517d3f60e01b81526001600160a01b038216600482015260248101839052604401610ff9565b5050565b5f516020613f925f395f51905f525460020361167e57604051633ee5aeb560e01b815260040160405180910390fd5b60015460ff1661167e57604051638dfc202b60e01b815260040160405180910390fd5b5f600b54821015613759575050600b5490565b600c5482111561376b575050600c5490565b5090565b5f828152600f6020526040812060078101546006820154839161379191613cf7565b90505f846137a35782600601546137a9565b82600701545b9050815f036137bd575f9350505050610dac565b818184600801546137ce9190613d66565b6137d89190613f1e565b9695505050505050565b5f828152601360205260408120815b81548110156138a2575f82828154811061380d5761380d613f3d565b5f9182526020808320909101548883526011825260408084206001600160a01b0390921680855291909252912080549192509060ff61010090910416151586151514801590613890575f6064600a54846001015461386b9190613d66565b6138759190613f1e565b6005840181905590506138888188613cf7565b965050613897565b5f60058301555b5050506001016137f1565b505092915050565b5f602082840312156138ba575f5ffd5b81356001600160e01b031981168114610eb7575f5ffd5b803560128110611e7d575f5ffd5b80356001600160a01b0381168114611e7d575f5ffd5b5f5f60408385031215613906575f5ffd5b61390f836138d1565b915061391d602084016138df565b90509250929050565b5f60208284031215613936575f5ffd5b610eb7826138df565b80151581146111e3575f5ffd5b5f6020828403121561395c575f5ffd5b8135610eb78161393f565b5f60208284031215613977575f5ffd5b5035919050565b5f5f6040838503121561398f575f5ffd5b8235915061391d602084016138df565b5f5f604083850312156139b0575f5ffd5b6139b9836138d1565b946020939093013593505050565b5f81518084528060208401602086015e5f602082860101526020601f19601f83011685010191505092915050565b60208152815160208201525f6020830151613a1b60408401826001600160a01b03169052565b5060408301516101206060840152613a376101408401826139c7565b905060608401516080840152608084015160a084015260a0840151613a6060c085018215159052565b5060c084015160e084015260e08401516101008401526101008401516101208401528091505092915050565b5f5f60408385031215613a9d575f5ffd5b6139b9836138df565b634e487b7160e01b5f52604160045260245ffd5b5f60208284031215613aca575f5ffd5b813567ffffffffffffffff811115613ae0575f5ffd5b8201601f81018413613af0575f5ffd5b803567ffffffffffffffff811115613b0a57613b0a613aa6565b604051601f8201601f19908116603f0116810167ffffffffffffffff81118282101715613b3957613b39613aa6565b604052818152828201602001861015613b50575f5ffd5b816020840160208301375f91810160200191909152949350505050565b8981526001600160a01b0389166020820152610120604082018190525f90613b979083018a6139c7565b606083019890985250608081019590955292151560a085015260c084019190915260e0830152610100909101529392505050565b5f6101008201905082511515825260208301511515602083015260408301516040830152606083015160608301526080830151608083015260a0830151151560a083015260c0830151613c2260c084018215159052565b5060e092830151919092015290565b5f5f60408385031215613c42575f5ffd5b50508035926020909101359150565b5f5f5f60608486031215613c63575f5ffd5b833592506020840135613c758161393f565b929592945050506040919091013590565b60128110613ca257634e487b7160e01b5f52602160045260245ffd5b9052565b60408101613cb48285613c86565b6001600160a01b039290921660209190910152919050565b5f60208284031215613cdc575f5ffd5b5051919050565b634e487b7160e01b5f52601160045260245ffd5b80820180821115610dac57610dac613ce3565b81810381811115610dac57610dac613ce3565b5f60208284031215613d2d575f5ffd5b8151610eb78161393f565b60208082526014908201527310db185a5b48191bd95cc81b9bdd08195e1a5cdd60621b604082015260600190565b8082028115828204841417610dac57610dac613ce3565b60408101613d8b8285613c86565b8260208301529392505050565b600181811c90821680613dac57607f821691505b602082108103613dca57634e487b7160e01b5f52602260045260245ffd5b50919050565b5f60018201613de157613de1613ce3565b5060010190565b601f8211156112c657828211156112c657805f5260205f20601f840160051c6020851015613e1357505f5b90810190601f840160051c035f5b81811015613e36575f83820155600101613e21565b505050505050565b815167ffffffffffffffff811115613e5857613e58613aa6565b613e6c81613e668454613d98565b84613de8565b6020601f821160018114613e9e575f8315613e875750848201515b5f19600385901b1c1916600184901b178455613ef6565b5f84815260208120601f198516915b82811015613ecd5787850151825560209485019460019092019101613ead565b5084821015613eea57868401515f19600387901b60f8161c191681555b505060018360011b0184555b5050505050565b604081525f613f0f60408301856139c7565b90508260208301529392505050565b5f82613f3857634e487b7160e01b5f52601260045260245ffd5b500490565b634e487b7160e01b5f52603260045260245ffdfe71840dc4906352362b0cdaf79870196c8e42acafade72d5d5a6d59291253ceb159d657359512cd63e5622af1c9696c1ba638c643e928d4c04c720f367138015f9b779b17422d0df92223018b32b4d1fa46e071723d6817e2486d003becc55f00a49807205ce4d355092ef5a8a18f56e8913cf4a201fbe287825b095693c21775a2646970667358221220c69db5055ed30955186161b75d35edca1484ee8dda4769336acdf3c6e763300764736f6c6343000823003371840dc4906352362b0cdaf79870196c8e42acafade72d5d5a6d59291253ceb1e7e0b301de1c1e268073a6b56ff0876cffca0becba0dca08f945c1394e3e972765d7a28e3265b37a6474929f336521b332c1681b933f6cb9f3376673440d862aa49807205ce4d355092ef5a8a18f56e8913cf4a201fbe287825b095693c21775","linkReferences":{}},"methodIdentifiers":{"ADMIN_ROLE()":"75b238fc","BASE_MULTIPLIER()":"a2b44393","DEFAULT_ADMIN_ROLE()":"a217fddf","DEFAULT_MIN_STAKE_AMOUNT()":"f794ecc6","DEFAULT_REPUTATION_SCORE()":"3fad8004","DEFAULT_REWARD_PERCENT()":"bd6dd26e","DEFAULT_SETTLEMENT_THRESHOLD_PERCENT()":"abf02dfe","DEFAULT_SLASH_PERCENT()":"1084e066","DEFAULT_VERIFICATION_WINDOW_DURATION()":"9e54d8c4","GOVERNANCE_ADMIN_ROLE()":"77fb8d7a","GOVERNANCE_PARAM_CONFIRMATION_DELAY()":"83aa15b6","GOVERNANCE_PARAM_MIN_STAKE()":"550b2595","GOVERNANCE_PARAM_REWARD()":"39260e36","GOVERNANCE_PARAM_SLASH()":"fefeffcb","GOVERNANCE_PARAM_THRESHOLD()":"82d9d6e7","GOVERNANCE_PARAM_VERIFICATION_WINDOW()":"e0ca1184","GOVERNANCE_ROLE()":"f36c8f5c","MAX_REPUTATION_SCORE()":"45113548","MAX_VERIFICATION_WINDOW_DURATION()":"04c24dbb","MIN_REPUTATION_SCORE()":"c77943c0","MIN_VERIFICATION_WINDOW_DURATION()":"3e8bf4aa","PAUSER_ROLE()":"e63ab1e9","PERCENT_DENOMINATOR()":"9e6c2959","RESOLVER_ROLE()":"78fab260","TOKEN_DECIMALS_MULTIPLIER()":"ec6c18fc","TREASURY_ROLE()":"d11a57ec","bountyToken()":"2d4147e3","claimCounter()":"4efa8f17","claimSettlementRewards(uint256)":"ccfb0775","claims(uint256)":"a888c2cd","confirmationDelay()":"80de7f91","createClaim(string)":"84c08ed3","defaultReputationScore()":"389bea4d","emergencyAdmin()":"70905dce","emergencyPause()":"51858e27","emergencyUnpause()":"4a4e3bd5","getClaim(uint256)":"5aef2447","getGovernanceVersion()":"ff12cb74","getRoleAdmin(bytes32)":"248a9ca3","getVerifierStake(address)":"0fa137f4","getVote(uint256,address)":"bc3f931f","governanceController()":"a84195ea","governanceEnabled()":"0b3978fc","grantRole(bytes32,address)":"2f2ff15d","hasGovernanceRights(address)":"f0179601","hasRole(bytes32,address)":"91d14854","maxReputationScore()":"947ec0e0","minReputationScore()":"bdb3c7f6","minStakeAmount()":"f1887684","pause()":"8456cb59","paused()":"5c975abb","previewEffectiveStake(address,uint256)":"6e532d06","renounceRole(bytes32,address)":"36568abe","reputationOracle()":"fad844c1","requestGovernanceAddressUpdate(uint8,address)":"03b82d3c","requestGovernanceParameterUpdate(uint8,uint256)":"57a25803","revokeRole(bytes32,address)":"d547741f","rewardPercent()":"d0302051","setConfirmationDelay(uint256)":"97f2d3e1","setDefaultReputationScore(uint256)":"d6da2cf7","setEmergencyAdmin(address)":"35da3394","setGovernanceController(address)":"84152906","setGovernanceEnabled(bool)":"ce2661f1","setMinStakeAmount(uint256)":"eb4af045","setReputationBounds(uint256,uint256)":"c2b08890","setReputationOracle(address)":"d19cfdac","setRewardPercent(uint256)":"c1c5dd27","setSettlementThresholdPercent(uint256)":"8e9a4b4c","setSlashPercent(uint256)":"645d2c41","setVerificationWindowDuration(uint256)":"75a7d098","setWeightedStakingEnabled(bool)":"1956f01b","settleClaim(uint256)":"e406f1d8","settlementResults(uint256)":"85915671","settlementThresholdPercent()":"8244a517","slashPercent()":"6343b15f","stake(uint256)":"a694fc3a","supportsInterface(bytes4)":"01ffc9a7","totalRewarded()":"aed29d07","totalSlashed()":"a201bbdd","unpause()":"3f4ba83a","updateBountyToken(address)":"75feeb73","verificationWindowDuration()":"d37f7a06","verifierStakes(address)":"139ae68b","vote(uint256,bool,uint256)":"d46a5d7e","votes(uint256,address)":"d23254b4","weightedStakingEnabled()":"ad797158","withdrawSettledStake(uint256)":"37d1cc8d","withdrawStake(uint256)":"25d5971f"},"id":2}