{"abi":[{"type":"constructor","inputs":[{"name":"_stakingToken","type":"address","internalType":"address"},{"name":"_initialLockDuration","type":"uint256","internalType":"uint256"},{"name":"initialAdmin","type":"address","internalType":"address"}],"stateMutability":"nonpayable"},{"type":"function","name":"ADMIN_ROLE","inputs":[],"outputs":[{"name":"","type":"bytes32","internalType":"bytes32"}],"stateMutability":"view"},{"type":"function","name":"DEFAULT_ADMIN_ROLE","inputs":[],"outputs":[{"name":"","type":"bytes32","internalType":"bytes32"}],"stateMutability":"view"},{"type":"function","name":"RESOLVER_ROLE","inputs":[],"outputs":[{"name":"","type":"bytes32","internalType":"bytes32"}],"stateMutability":"view"},{"type":"function","name":"forceSlash","inputs":[{"name":"user","type":"address","internalType":"address"},{"name":"amount","type":"uint256","internalType":"uint256"}],"outputs":[],"stateMutability":"nonpayable"},{"type":"function","name":"getRoleAdmin","inputs":[{"name":"role","type":"bytes32","internalType":"bytes32"}],"outputs":[{"name":"","type":"bytes32","internalType":"bytes32"}],"stateMutability":"view"},{"type":"function","name":"getStakeInfo","inputs":[{"name":"user","type":"address","internalType":"address"}],"outputs":[{"name":"amount","type":"uint256","internalType":"uint256"},{"name":"unlockTime","type":"uint256","internalType":"uint256"},{"name":"timeRemaining","type":"uint256","internalType":"uint256"}],"stateMutability":"view"},{"type":"function","name":"grantRole","inputs":[{"name":"role","type":"bytes32","internalType":"bytes32"},{"name":"account","type":"address","internalType":"address"}],"outputs":[],"stateMutability":"nonpayable"},{"type":"function","name":"hasRole","inputs":[{"name":"role","type":"bytes32","internalType":"bytes32"},{"name":"account","type":"address","internalType":"address"}],"outputs":[{"name":"","type":"bool","internalType":"bool"}],"stateMutability":"view"},{"type":"function","name":"lockDuration","inputs":[],"outputs":[{"name":"","type":"uint256","internalType":"uint256"}],"stateMutability":"view"},{"type":"function","name":"renounceRole","inputs":[{"name":"role","type":"bytes32","internalType":"bytes32"},{"name":"callerConfirmation","type":"address","internalType":"address"}],"outputs":[],"stateMutability":"nonpayable"},{"type":"function","name":"revokeRole","inputs":[{"name":"role","type":"bytes32","internalType":"bytes32"},{"name":"account","type":"address","internalType":"address"}],"outputs":[],"stateMutability":"nonpayable"},{"type":"function","name":"setLockDuration","inputs":[{"name":"_duration","type":"uint256","internalType":"uint256"}],"outputs":[],"stateMutability":"nonpayable"},{"type":"function","name":"setSlashingContract","inputs":[{"name":"_slashingContract","type":"address","internalType":"address"}],"outputs":[],"stateMutability":"nonpayable"},{"type":"function","name":"slashingContract","inputs":[],"outputs":[{"name":"","type":"address","internalType":"address"}],"stateMutability":"view"},{"type":"function","name":"stake","inputs":[{"name":"amount","type":"uint256","internalType":"uint256"}],"outputs":[],"stateMutability":"nonpayable"},{"type":"function","name":"stakes","inputs":[{"name":"","type":"address","internalType":"address"}],"outputs":[{"name":"amount","type":"uint256","internalType":"uint256"},{"name":"unlockTime","type":"uint256","internalType":"uint256"}],"stateMutability":"view"},{"type":"function","name":"stakingToken","inputs":[],"outputs":[{"name":"","type":"address","internalType":"contract IERC20"}],"stateMutability":"view"},{"type":"function","name":"supportsInterface","inputs":[{"name":"interfaceId","type":"bytes4","internalType":"bytes4"}],"outputs":[{"name":"","type":"bool","internalType":"bool"}],"stateMutability":"view"},{"type":"function","name":"unstake","inputs":[{"name":"amount","type":"uint256","internalType":"uint256"}],"outputs":[],"stateMutability":"nonpayable"},{"type":"event","name":"LockDurationUpdated","inputs":[{"name":"newDuration","type":"uint256","indexed":false,"internalType":"uint256"}],"anonymous":false},{"type":"event","name":"RoleAdminChanged","inputs":[{"name":"role","type":"bytes32","indexed":true,"internalType":"bytes32"},{"name":"previousAdminRole","type":"bytes32","indexed":true,"internalType":"bytes32"},{"name":"newAdminRole","type":"bytes32","indexed":true,"internalType":"bytes32"}],"anonymous":false},{"type":"event","name":"RoleGranted","inputs":[{"name":"role","type":"bytes32","indexed":true,"internalType":"bytes32"},{"name":"account","type":"address","indexed":true,"internalType":"address"},{"name":"sender","type":"address","indexed":true,"internalType":"address"}],"anonymous":false},{"type":"event","name":"RoleRevoked","inputs":[{"name":"role","type":"bytes32","indexed":true,"internalType":"bytes32"},{"name":"account","type":"address","indexed":true,"internalType":"address"},{"name":"sender","type":"address","indexed":true,"internalType":"address"}],"anonymous":false},{"type":"event","name":"SlashingContractUpdated","inputs":[{"name":"newSlashingContract","type":"address","indexed":false,"internalType":"address"}],"anonymous":false},{"type":"event","name":"StakeSlashed","inputs":[{"name":"user","type":"address","indexed":true,"internalType":"address"},{"name":"amount","type":"uint256","indexed":false,"internalType":"uint256"},{"name":"remainingStake","type":"uint256","indexed":false,"internalType":"uint256"}],"anonymous":false},{"type":"event","name":"Staked","inputs":[{"name":"user","type":"address","indexed":true,"internalType":"address"},{"name":"amount","type":"uint256","indexed":false,"internalType":"uint256"},{"name":"totalStaked","type":"uint256","indexed":false,"internalType":"uint256"},{"name":"unlockTime","type":"uint256","indexed":false,"internalType":"uint256"}],"anonymous":false},{"type":"event","name":"Unstaked","inputs":[{"name":"user","type":"address","indexed":true,"internalType":"address"},{"name":"amount","type":"uint256","indexed":false,"internalType":"uint256"},{"name":"remainingStake","type":"uint256","indexed":false,"internalType":"uint256"}],"anonymous":false},{"type":"error","name":"AccessControlBadConfirmation","inputs":[]},{"type":"error","name":"AccessControlUnauthorizedAccount","inputs":[{"name":"account","type":"address","internalType":"address"},{"name":"neededRole","type":"bytes32","internalType":"bytes32"}]},{"type":"error","name":"ReentrancyGuardReentrantCall","inputs":[]}],"bytecode":{"object":"0x608060405234801561000f575f5ffd5b506040516110d83803806110d883398101604081905261002e91610293565b60017f9b779b17422d0df92223018b32b4d1fa46e071723d6817e2486d003becc55f00556001600160a01b0383166100ad5760405162461bcd60e51b815260206004820152601560248201527f496e76616c696420746f6b656e2061646472657373000000000000000000000060448201526064015b60405180910390fd5b6001600160a01b0381166101035760405162461bcd60e51b815260206004820152601560248201527f496e76616c69642061646d696e2061646472657373000000000000000000000060448201526064016100a4565b600180546001600160a01b0319166001600160a01b038516179055600282905561012d5f82610185565b506101455f5160206110b85f395f51905f5282610185565b5061017d7f92a19c77d2ea87c7f81d50c74403cb2f401780f3ad919571121efe2bdb427eb15f5160206110b85f395f51905f5261022e565b5050506102cc565b5f828152602081815260408083206001600160a01b038516845290915281205460ff16610225575f838152602081815260408083206001600160a01b03861684529091529020805460ff191660011790556101dd3390565b6001600160a01b0316826001600160a01b0316847f2f8788117e7eff1d82e926ec794901d17c78024a50270940304540a733656f0d60405160405180910390a4506001610228565b505f5b92915050565b5f82815260208190526040808220600101805490849055905190918391839186917fbd79b86ffe0ab8e8776151514217cd7cacd52c909f66475c3af44e129f0b00ff9190a4505050565b80516001600160a01b038116811461028e575f5ffd5b919050565b5f5f5f606084860312156102a5575f5ffd5b6102ae84610278565b9250602084015191506102c360408501610278565b90509250925092565b610ddf806102d95f395ff3fe608060405234801561000f575f5ffd5b506004361061011c575f3560e01c806372f702f3116100a9578063a217fddf1161006e578063a217fddf146102a9578063a694fc3a146102b0578063c3453153146102c3578063cab3a581146102f1578063d547741f14610304575f5ffd5b806372f702f31461023557806375b238fc1461024857806378fab2601461026f57806391d1485414610283578063962ec49414610296575f5ffd5b8063248a9ca3116100ef578063248a9ca3146101c55780632e17de78146101e75780632f2ff15d146101fc57806336568abe1461020f5780634eb665af14610222575f5ffd5b806301ffc9a71461012057806304554443146101485780630c505e511461015f57806316934fc41461018a575b5f5ffd5b61013361012e366004610c65565b610317565b60405190151581526020015b60405180910390f35b61015160025481565b60405190815260200161013f565b600354610172906001600160a01b031681565b6040516001600160a01b03909116815260200161013f565b6101b0610198366004610cae565b60046020525f90815260409020805460019091015482565b6040805192835260208301919091520161013f565b6101516101d3366004610cc7565b5f9081526020819052604090206001015490565b6101fa6101f5366004610cc7565b61034d565b005b6101fa61020a366004610cde565b610541565b6101fa61021d366004610cde565b61056b565b6101fa610230366004610cc7565b6105a3565b600154610172906001600160a01b031681565b6101517fa49807205ce4d355092ef5a8a18f56e8913cf4a201fbe287825b095693c2177581565b6101515f516020610d8a5f395f51905f5281565b610133610291366004610cde565b61060a565b6101fa6102a4366004610d08565b610632565b6101515f81565b6101fa6102be366004610cc7565b6107c9565b6102d66102d1366004610cae565b610908565b6040805193845260208401929092529082015260600161013f565b6101fa6102ff366004610cae565b61096d565b6101fa610312366004610cde565b610a90565b5f6001600160e01b03198216637965db0b60e01b148061034757506301ffc9a760e01b6001600160e01b03198316145b92915050565b610355610ab4565b335f90815260046020526040902080548211156103b95760405162461bcd60e51b815260206004820152601b60248201527f496e73756666696369656e74207374616b65642062616c616e6365000000000060448201526064015b60405180910390fd5b80600101544210156104055760405162461bcd60e51b815260206004820152601560248201527414dd185ad9481a5cc81cdd1a5b1b081b1bd8dad959605a1b60448201526064016103b0565b5f82116104475760405162461bcd60e51b815260206004820152601060248201526f043616e6e6f7420756e7374616b6520360841b60448201526064016103b0565b81815f015f8282546104599190610d44565b909155505060015460405163a9059cbb60e01b8152336004820152602481018490526001600160a01b039091169063a9059cbb906044016020604051808303815f875af11580156104ac573d5f5f3e3d5ffd5b505050506040513d601f19601f820116820180604052508101906104d09190610d57565b50805460405133917f7fc4727e062e336010f2c282598ef5f14facb3de68cf8195c2f23e1454b2b74e9161050c91868252602082015260400190565b60405180910390a25061053e60017f9b779b17422d0df92223018b32b4d1fa46e071723d6817e2486d003becc55f0055565b50565b5f8281526020819052604090206001015461055b81610ae2565b6105658383610aec565b50505050565b6001600160a01b03811633146105945760405163334bd91960e11b815260040160405180910390fd5b61059e8282610b7b565b505050565b7fa49807205ce4d355092ef5a8a18f56e8913cf4a201fbe287825b095693c217756105cd81610ae2565b60028290556040518281527f3e062f634a950eae456fa5f8fb53a4f59f55039983bd73df7a34a313b75443d4906020015b60405180910390a15050565b5f918252602082815260408084206001600160a01b0393909316845291905290205460ff1690565b6106495f516020610d8a5f395f51905f523361060a565b6106a15760405162461bcd60e51b815260206004820152602360248201527f4f6e6c7920617574686f72697a6564207265736f6c766572732063616e20736c6044820152620c2e6d60eb1b60648201526084016103b0565b6003546001600160a01b03166106f95760405162461bcd60e51b815260206004820152601960248201527f536c617368696e6720636f6e7472616374206e6f74207365740000000000000060448201526064016103b0565b6001600160a01b0382165f90815260046020526040902080548211156107615760405162461bcd60e51b815260206004820152601b60248201527f496e73756666696369656e74207374616b6520746f20736c617368000000000060448201526064016103b0565b81815f015f8282546107739190610d44565b909155505080546040516001600160a01b038516917fdf265bfb52299e38254430e6ece4cdeb6f81588779612f5fcb3ed971a10a972b916107bc91868252602082015260400190565b60405180910390a2505050565b6107d1610ab4565b5f81116108115760405162461bcd60e51b815260206004820152600e60248201526d043616e6e6f74207374616b6520360941b60448201526064016103b0565b6001546040516323b872dd60e01b8152336004820152306024820152604481018390526001600160a01b03909116906323b872dd906064016020604051808303815f875af1158015610865573d5f5f3e3d5ffd5b505050506040513d601f19601f820116820180604052508101906108899190610d57565b50335f9081526004602052604081208054909183918391906108ac908490610d76565b90915550506002546108be9042610d76565b60018201819055815460408051858152602081019290925281019190915233907fb4caaf29adda3eefee3ad552a8e85058589bf834c7466cae4ee58787f70589ed9060600161050c565b6001600160a01b0381165f9081526004602090815260408083208151808301909252805482526001015491810182905282918291908290421015610959574282602001516109569190610d44565b90505b815160209092015191969195509350915050565b7fa49807205ce4d355092ef5a8a18f56e8913cf4a201fbe287825b095693c2177561099781610ae2565b6001600160a01b0382166109ed5760405162461bcd60e51b815260206004820152601960248201527f496e76616c696420736c617368696e6720636f6e74726163740000000000000060448201526064016103b0565b6003546001600160a01b031615610a2457600354610a22905f516020610d8a5f395f51905f52906001600160a01b0316610b7b565b505b600380546001600160a01b0319166001600160a01b038416179055610a565f516020610d8a5f395f51905f5283610aec565b506040516001600160a01b03831681527f35b26587fad84569f77361f9e7045dab3f03a97378708d3ec5d9f52147e3797b906020016105fe565b5f82815260208190526040902060010154610aaa81610ae2565b6105658383610b7b565b610abc610be4565b60027f9b779b17422d0df92223018b32b4d1fa46e071723d6817e2486d003becc55f0055565b61053e8133610c28565b5f610af7838361060a565b610b74575f838152602081815260408083206001600160a01b03861684529091529020805460ff19166001179055610b2c3390565b6001600160a01b0316826001600160a01b0316847f2f8788117e7eff1d82e926ec794901d17c78024a50270940304540a733656f0d60405160405180910390a4506001610347565b505f610347565b5f610b86838361060a565b15610b74575f838152602081815260408083206001600160a01b0386168085529252808320805460ff1916905551339286917ff6391f5c32d9c69d2a47ea670b442974b53935d1edc7fd64eb21e047a839171b9190a4506001610347565b7f9b779b17422d0df92223018b32b4d1fa46e071723d6817e2486d003becc55f0054600203610c2657604051633ee5aeb560e01b815260040160405180910390fd5b565b610c32828261060a565b610c615760405163e2517d3f60e01b81526001600160a01b0382166004820152602481018390526044016103b0565b5050565b5f60208284031215610c75575f5ffd5b81356001600160e01b031981168114610c8c575f5ffd5b9392505050565b80356001600160a01b0381168114610ca9575f5ffd5b919050565b5f60208284031215610cbe575f5ffd5b610c8c82610c93565b5f60208284031215610cd7575f5ffd5b5035919050565b5f5f60408385031215610cef575f5ffd5b82359150610cff60208401610c93565b90509250929050565b5f5f60408385031215610d19575f5ffd5b610d2283610c93565b946020939093013593505050565b634e487b7160e01b5f52601160045260245ffd5b8181038181111561034757610347610d30565b5f60208284031215610d67575f5ffd5b81518015158114610c8c575f5ffd5b8082018082111561034757610347610d3056fe92a19c77d2ea87c7f81d50c74403cb2f401780f3ad919571121efe2bdb427eb1a2646970667358221220c998e78ffd049ff10ef86c06f253ba34688966071e9e6428a9752db30aecab4364736f6c63430008230033a49807205ce4d355092ef5a8a18f56e8913cf4a201fbe287825b095693c21775","linkReferences":{}},"methodIdentifiers":{"ADMIN_ROLE()":"75b238fc","DEFAULT_ADMIN_ROLE()":"a217fddf","RESOLVER_ROLE()":"78fab260","forceSlash(address,uint256)":"962ec494","getRoleAdmin(bytes32)":"248a9ca3","getStakeInfo(address)":"c3453153","grantRole(bytes32,address)":"2f2ff15d","hasRole(bytes32,address)":"91d14854","lockDuration()":"04554443","renounceRole(bytes32,address)":"36568abe","revokeRole(bytes32,address)":"d547741f","setLockDuration(uint256)":"4eb665af","setSlashingContract(address)":"cab3a581","slashingContract()":"0c505e51","stake(uint256)":"a694fc3a","stakes(address)":"16934fc4","stakingToken()":"72f702f3","supportsInterface(bytes4)":"01ffc9a7","unstake(uint256)":"2e17de78"},"id":6}